{
  "contractName": "IPLMoments",
  "abi": [
    {
      "inputs": [],
      "stateMutability": "nonpayable",
      "type": "constructor"
    },
    {
      "anonymous": false,
      "inputs": [
        {
          "indexed": true,
          "internalType": "address",
          "name": "owner",
          "type": "address"
        },
        {
          "indexed": true,
          "internalType": "address",
          "name": "approved",
          "type": "address"
        },
        {
          "indexed": true,
          "internalType": "uint256",
          "name": "tokenId",
          "type": "uint256"
        }
      ],
      "name": "Approval",
      "type": "event"
    },
    {
      "anonymous": false,
      "inputs": [
        {
          "indexed": true,
          "internalType": "address",
          "name": "owner",
          "type": "address"
        },
        {
          "indexed": true,
          "internalType": "address",
          "name": "operator",
          "type": "address"
        },
        {
          "indexed": false,
          "internalType": "bool",
          "name": "approved",
          "type": "bool"
        }
      ],
      "name": "ApprovalForAll",
      "type": "event"
    },
    {
      "anonymous": false,
      "inputs": [
        {
          "indexed": true,
          "internalType": "address",
          "name": "oldMinter",
          "type": "address"
        },
        {
          "indexed": true,
          "internalType": "address",
          "name": "newMinter",
          "type": "address"
        }
      ],
      "name": "MinterChanged",
      "type": "event"
    },
    {
      "anonymous": false,
      "inputs": [
        {
          "indexed": true,
          "internalType": "address",
          "name": "previousOwner",
          "type": "address"
        },
        {
          "indexed": true,
          "internalType": "address",
          "name": "newOwner",
          "type": "address"
        }
      ],
      "name": "OwnershipTransferred",
      "type": "event"
    },
    {
      "anonymous": false,
      "inputs": [
        {
          "indexed": true,
          "internalType": "address",
          "name": "from",
          "type": "address"
        },
        {
          "indexed": true,
          "internalType": "address",
          "name": "to",
          "type": "address"
        },
        {
          "indexed": true,
          "internalType": "uint256",
          "name": "tokenId",
          "type": "uint256"
        }
      ],
      "name": "Transfer",
      "type": "event"
    },
    {
      "anonymous": false,
      "inputs": [
        {
          "indexed": false,
          "internalType": "uint256",
          "name": "seriesId",
          "type": "uint256"
        },
        {
          "indexed": false,
          "internalType": "string",
          "name": "url",
          "type": "string"
        },
        {
          "indexed": false,
          "internalType": "uint256",
          "name": "tokenId",
          "type": "uint256"
        }
      ],
      "name": "momentCreated",
      "type": "event"
    },
    {
      "inputs": [],
      "name": "_name",
      "outputs": [
        {
          "internalType": "string",
          "name": "",
          "type": "string"
        }
      ],
      "stateMutability": "view",
      "type": "function"
    },
    {
      "inputs": [],
      "name": "_symbol",
      "outputs": [
        {
          "internalType": "string",
          "name": "",
          "type": "string"
        }
      ],
      "stateMutability": "view",
      "type": "function"
    },
    {
      "inputs": [],
      "name": "minter",
      "outputs": [
        {
          "internalType": "address",
          "name": "",
          "type": "address"
        }
      ],
      "stateMutability": "view",
      "type": "function"
    },
    {
      "inputs": [],
      "name": "owner",
      "outputs": [
        {
          "internalType": "address",
          "name": "",
          "type": "address"
        }
      ],
      "stateMutability": "view",
      "type": "function"
    },
    {
      "inputs": [],
      "name": "renounceOwnership",
      "outputs": [],
      "stateMutability": "nonpayable",
      "type": "function"
    },
    {
      "inputs": [
        {
          "internalType": "address",
          "name": "newMinter",
          "type": "address"
        }
      ],
      "name": "setMinter",
      "outputs": [],
      "stateMutability": "nonpayable",
      "type": "function"
    },
    {
      "inputs": [
        {
          "internalType": "address",
          "name": "newOwner",
          "type": "address"
        }
      ],
      "name": "transferOwnership",
      "outputs": [],
      "stateMutability": "nonpayable",
      "type": "function"
    },
    {
      "inputs": [],
      "name": "name",
      "outputs": [
        {
          "internalType": "string",
          "name": "",
          "type": "string"
        }
      ],
      "stateMutability": "view",
      "type": "function"
    },
    {
      "inputs": [],
      "name": "symbol",
      "outputs": [
        {
          "internalType": "string",
          "name": "",
          "type": "string"
        }
      ],
      "stateMutability": "view",
      "type": "function"
    },
    {
      "inputs": [
        {
          "internalType": "string",
          "name": "_url",
          "type": "string"
        }
      ],
      "name": "createMoment",
      "outputs": [
        {
          "internalType": "uint256",
          "name": "newTokenId",
          "type": "uint256"
        }
      ],
      "stateMutability": "nonpayable",
      "type": "function"
    },
    {
      "inputs": [],
      "name": "startNextSeries",
      "outputs": [],
      "stateMutability": "nonpayable",
      "type": "function"
    },
    {
      "inputs": [],
      "name": "getSeriesId",
      "outputs": [
        {
          "internalType": "uint256",
          "name": "",
          "type": "uint256"
        }
      ],
      "stateMutability": "view",
      "type": "function"
    },
    {
      "inputs": [
        {
          "internalType": "address",
          "name": "owner",
          "type": "address"
        }
      ],
      "name": "balanceOf",
      "outputs": [
        {
          "internalType": "uint256",
          "name": "balance",
          "type": "uint256"
        }
      ],
      "stateMutability": "view",
      "type": "function"
    },
    {
      "inputs": [
        {
          "internalType": "uint256",
          "name": "_tokenId",
          "type": "uint256"
        }
      ],
      "name": "getMomentById",
      "outputs": [
        {
          "components": [
            {
              "internalType": "uint256",
              "name": "seriesId",
              "type": "uint256"
            },
            {
              "internalType": "string",
              "name": "url",
              "type": "string"
            }
          ],
          "internalType": "struct IPLMoments.Moment",
          "name": "",
          "type": "tuple"
        }
      ],
      "stateMutability": "view",
      "type": "function"
    },
    {
      "inputs": [
        {
          "internalType": "address",
          "name": "_owner",
          "type": "address"
        },
        {
          "internalType": "uint256",
          "name": "_index",
          "type": "uint256"
        }
      ],
      "name": "getMomentsOfOwnerByIndex",
      "outputs": [
        {
          "internalType": "uint256",
          "name": "",
          "type": "uint256"
        }
      ],
      "stateMutability": "view",
      "type": "function"
    },
    {
      "inputs": [],
      "name": "totalSupply",
      "outputs": [
        {
          "internalType": "uint256",
          "name": "",
          "type": "uint256"
        }
      ],
      "stateMutability": "view",
      "type": "function"
    },
    {
      "inputs": [
        {
          "internalType": "uint256",
          "name": "tokenId",
          "type": "uint256"
        }
      ],
      "name": "ownerOf",
      "outputs": [
        {
          "internalType": "address",
          "name": "owner",
          "type": "address"
        }
      ],
      "stateMutability": "view",
      "type": "function"
    },
    {
      "inputs": [
        {
          "internalType": "address",
          "name": "operator",
          "type": "address"
        },
        {
          "internalType": "bool",
          "name": "approved",
          "type": "bool"
        }
      ],
      "name": "setApprovalForAll",
      "outputs": [],
      "stateMutability": "nonpayable",
      "type": "function"
    },
    {
      "inputs": [
        {
          "internalType": "uint256",
          "name": "tokenId",
          "type": "uint256"
        }
      ],
      "name": "getApproved",
      "outputs": [
        {
          "internalType": "address",
          "name": "approvedTo",
          "type": "address"
        }
      ],
      "stateMutability": "view",
      "type": "function"
    },
    {
      "inputs": [
        {
          "internalType": "address",
          "name": "to",
          "type": "address"
        },
        {
          "internalType": "uint256",
          "name": "tokenId",
          "type": "uint256"
        }
      ],
      "name": "approve",
      "outputs": [],
      "stateMutability": "nonpayable",
      "type": "function"
    },
    {
      "inputs": [
        {
          "internalType": "address",
          "name": "owner",
          "type": "address"
        },
        {
          "internalType": "address",
          "name": "operator",
          "type": "address"
        }
      ],
      "name": "isApprovedForAll",
      "outputs": [
        {
          "internalType": "bool",
          "name": "",
          "type": "bool"
        }
      ],
      "stateMutability": "view",
      "type": "function"
    },
    {
      "inputs": [
        {
          "internalType": "address",
          "name": "_from",
          "type": "address"
        },
        {
          "internalType": "address",
          "name": "_to",
          "type": "address"
        },
        {
          "internalType": "uint256",
          "name": "_tokenId",
          "type": "uint256"
        }
      ],
      "name": "transferFrom",
      "outputs": [],
      "stateMutability": "nonpayable",
      "type": "function"
    },
    {
      "inputs": [
        {
          "internalType": "bytes4",
          "name": "interfaceId",
          "type": "bytes4"
        }
      ],
      "name": "supportsInterface",
      "outputs": [
        {
          "internalType": "bool",
          "name": "",
          "type": "bool"
        }
      ],
      "stateMutability": "pure",
      "type": "function"
    },
    {
      "inputs": [
        {
          "internalType": "address",
          "name": "_from",
          "type": "address"
        },
        {
          "internalType": "address",
          "name": "_to",
          "type": "address"
        },
        {
          "internalType": "uint256",
          "name": "_tokenId",
          "type": "uint256"
        }
      ],
      "name": "safeTransferFrom",
      "outputs": [],
      "stateMutability": "nonpayable",
      "type": "function"
    },
    {
      "inputs": [
        {
          "internalType": "address",
          "name": "from",
          "type": "address"
        },
        {
          "internalType": "address",
          "name": "to",
          "type": "address"
        },
        {
          "internalType": "uint256",
          "name": "tokenId",
          "type": "uint256"
        },
        {
          "internalType": "bytes",
          "name": "data",
          "type": "bytes"
        }
      ],
      "name": "safeTransferFrom",
      "outputs": [],
      "stateMutability": "nonpayable",
      "type": "function"
    }
  ],
  "bytecode": "0x60806040526040518060400160405280600a81526020017f49504c4d6f6d656e747300000000000000000000000000000000000000000000815250600290805190602001906200005192919062000326565b506040518060400160405280600481526020017f49504c4d00000000000000000000000000000000000000000000000000000000815250600390805190602001906200009f92919062000326565b5060006005556000600655348015620000b757600080fd5b50620000d8620000cc620000fe60201b60201c565b6200010660201b60201c565b620000f8620000ec620000fe60201b60201c565b620001ca60201b60201c565b620004be565b600033905090565b60008060009054906101000a900473ffffffffffffffffffffffffffffffffffffffff169050816000806101000a81548173ffffffffffffffffffffffffffffffffffffffff021916908373ffffffffffffffffffffffffffffffffffffffff1602179055508173ffffffffffffffffffffffffffffffffffffffff168173ffffffffffffffffffffffffffffffffffffffff167f8be0079c531659141344cd1fd0a4f28419497f9722a3daafe3b4186f6b6457e060405160405180910390a35050565b620001da620000fe60201b60201c565b73ffffffffffffffffffffffffffffffffffffffff1662000200620002fd60201b60201c565b73ffffffffffffffffffffffffffffffffffffffff161462000259576040517f08c379a00000000000000000000000000000000000000000000000000000000081526004016200025090620003fd565b60405180910390fd5b600081905081600160006101000a81548173ffffffffffffffffffffffffffffffffffffffff021916908373ffffffffffffffffffffffffffffffffffffffff1602179055508173ffffffffffffffffffffffffffffffffffffffff168173ffffffffffffffffffffffffffffffffffffffff167f3b0007eb941cf645526cbb3a4fdaecda9d28ce4843167d9263b536a1f1edc0f660405160405180910390a35050565b60008060009054906101000a900473ffffffffffffffffffffffffffffffffffffffff16905090565b828054620003349062000430565b90600052602060002090601f016020900481019282620003585760008555620003a4565b82601f106200037357805160ff1916838001178555620003a4565b82800160010185558215620003a4579182015b82811115620003a357825182559160200191906001019062000386565b5b509050620003b39190620003b7565b5090565b5b80821115620003d2576000816000905550600101620003b8565b5090565b6000620003e56020836200041f565b9150620003f28262000495565b602082019050919050565b600060208201905081810360008301526200041881620003d6565b9050919050565b600082825260208201905092915050565b600060028204905060018216806200044957607f821691505b6020821081141562000460576200045f62000466565b5b50919050565b7f4e487b7100000000000000000000000000000000000000000000000000000000600052602260045260246000fd5b7f4f776e61626c653a2063616c6c6572206973206e6f7420746865206f776e6572600082015250565b61249580620004ce6000396000f3fe608060405234801561001057600080fd5b50600436106101725760003560e01c806370a08231116100de578063b09f126611610097578063e8902b4a11610071578063e8902b4a14610427578063e985e9c514610457578063f2fde38b14610487578063fca3b5aa146104a357610172565b8063b09f1266146103cf578063b88d4fde146103ed578063d28d88521461040957610172565b806370a0823114610333578063715018a6146103635780637b35fb481461036d5780638da5cb5b1461037757806395d89b4114610395578063a22cb465146103b357610172565b8063129f766f11610130578063129f766f1461025f57806318160ddd1461028f57806323b872dd146102ad57806342842e0e146102c95780635279ad65146102e55780636352211e1461030357610172565b8062e7203e1461017757806301ffc9a7146101a757806306fdde03146101d757806307546172146101f5578063081812fc14610213578063095ea7b314610243575b600080fd5b610191600480360381019061018c9190611b6e565b6104bf565b60405161019e9190611f12565b60405180910390f35b6101c160048036038101906101bc9190611b45565b6106ec565b6040516101ce9190611dd3565b60405180910390f35b6101df6106f7565b6040516101ec9190611dee565b60405180910390f35b6101fd610789565b60405161020a9190611db8565b60405180910390f35b61022d60048036038101906102289190611baf565b6107b3565b60405161023a9190611db8565b60405180910390f35b61025d60048036038101906102589190611b09565b610838565b005b61027960048036038101906102749190611baf565b610971565b6040516102869190611ef0565b60405180910390f35b610297610a6f565b6040516102a49190611f12565b60405180910390f35b6102c760048036038101906102c291906119fe565b610a79565b005b6102e360048036038101906102de91906119fe565b610bc4565b005b6102ed610bd4565b6040516102fa9190611f12565b60405180910390f35b61031d60048036038101906103189190611baf565b610bde565b60405161032a9190611db8565b60405180910390f35b61034d60048036038101906103489190611970565b610c1b565b60405161035a9190611f12565b60405180910390f35b61036b610c64565b005b610375610cec565b005b61037f610d06565b60405161038c9190611db8565b60405180910390f35b61039d610d2f565b6040516103aa9190611dee565b60405180910390f35b6103cd60048036038101906103c89190611acd565b610dc1565b005b6103d7610f42565b6040516103e49190611dee565b60405180910390f35b61040760048036038101906104029190611a4d565b610fd0565b005b610411610fd7565b60405161041e9190611dee565b60405180910390f35b610441600480360381019061043c9190611b09565b611065565b60405161044e9190611f12565b60405180910390f35b610471600480360381019061046c91906119c2565b611120565b60405161047e9190611dd3565b60405180910390f35b6104a1600480360381019061049c9190611970565b6111b4565b005b6104bd60048036038101906104b89190611970565b6112ac565b005b6000600160009054906101000a900473ffffffffffffffffffffffffffffffffffffffff1673ffffffffffffffffffffffffffffffffffffffff166105026113cc565b73ffffffffffffffffffffffffffffffffffffffff1614610558576040517f08c379a000000000000000000000000000000000000000000000000000000000815260040161054f90611ed0565b60405180910390fd5b60006040518060400160405280600554815260200184815250905060048190806001815401808255809150506001900390600052602060002090600202016000909190919091506000820151816000015560208201518160010190805190602001906105c5929190611798565b50505060016004805490506105da9190611fee565b91506105e4610789565b6007600084815260200190815260200160002060006101000a81548173ffffffffffffffffffffffffffffffffffffffff021916908373ffffffffffffffffffffffffffffffffffffffff1602179055506006600081548092919061064890612165565b919050555060086000610659610789565b73ffffffffffffffffffffffffffffffffffffffff1673ffffffffffffffffffffffffffffffffffffffff16815260200190815260200160002060008154809291906106a490612165565b91905055507f664a9f72c6c59d5e5e6796eee9c34378ce62abe9593ada5bdc0564e23a16407b60055484846040516106de93929190611f2d565b60405180910390a150919050565b600060019050919050565b60606002805461070690612102565b80601f016020809104026020016040519081016040528092919081815260200182805461073290612102565b801561077f5780601f106107545761010080835404028352916020019161077f565b820191906000526020600020905b81548152906001019060200180831161076257829003601f168201915b5050505050905090565b6000600160009054906101000a900473ffffffffffffffffffffffffffffffffffffffff16905090565b60006107be826113d4565b6107fd576040517f08c379a00000000000000000000000000000000000000000000000000000000081526004016107f490611e70565b60405180910390fd5b6009600083815260200190815260200160002060009054906101000a900473ffffffffffffffffffffffffffffffffffffffff169050919050565b600073ffffffffffffffffffffffffffffffffffffffff168273ffffffffffffffffffffffffffffffffffffffff16141561087257600080fd5b61087a6113cc565b73ffffffffffffffffffffffffffffffffffffffff1661089982610bde565b73ffffffffffffffffffffffffffffffffffffffff16146108b957600080fd5b816009600083815260200190815260200160002060006101000a81548173ffffffffffffffffffffffffffffffffffffffff021916908373ffffffffffffffffffffffffffffffffffffffff160217905550808273ffffffffffffffffffffffffffffffffffffffff1661092b6113cc565b73ffffffffffffffffffffffffffffffffffffffff167f8c5be1e5ebec7d5bd14f71427d1e84f3dd0314c0f7b2291e5b200ac8c7c3b92560405160405180910390a45050565b61097961181e565b600482815481106109b3577f4e487b7100000000000000000000000000000000000000000000000000000000600052603260045260246000fd5b9060005260206000209060020201604051806040016040529081600082015481526020016001820180546109e690612102565b80601f0160208091040260200160405190810160405280929190818152602001828054610a1290612102565b8015610a5f5780601f10610a3457610100808354040283529160200191610a5f565b820191906000526020600020905b815481529060010190602001808311610a4257829003601f168201915b5050505050815250509050919050565b6000600654905090565b600160009054906101000a900473ffffffffffffffffffffffffffffffffffffffff1673ffffffffffffffffffffffffffffffffffffffff16610aba6113cc565b73ffffffffffffffffffffffffffffffffffffffff1614610b10576040517f08c379a0000000000000000000000000000000000000000000000000000000008152600401610b0790611ed0565b60405180910390fd5b610b1a8382611440565b610b59576040517f08c379a0000000000000000000000000000000000000000000000000000000008152600401610b5090611eb0565b60405180910390fd5b610b6483838361159e565b808273ffffffffffffffffffffffffffffffffffffffff168473ffffffffffffffffffffffffffffffffffffffff167fddf252ad1be2c89b69c2b068fc378daa952ba7f163c4a11628f55a4df523b3ef60405160405180910390a4505050565b610bcf838383610a79565b505050565b6000600554905090565b60006007600083815260200190815260200160002060009054906101000a900473ffffffffffffffffffffffffffffffffffffffff169050919050565b6000600860008373ffffffffffffffffffffffffffffffffffffffff1673ffffffffffffffffffffffffffffffffffffffff168152602001908152602001600020549050919050565b610c6c6113cc565b73ffffffffffffffffffffffffffffffffffffffff16610c8a610d06565b73ffffffffffffffffffffffffffffffffffffffff1614610ce0576040517f08c379a0000000000000000000000000000000000000000000000000000000008152600401610cd790611e90565b60405180910390fd5b610cea60006116d4565b565b60056000815480929190610cff90612165565b9190505550565b60008060009054906101000a900473ffffffffffffffffffffffffffffffffffffffff16905090565b606060038054610d3e90612102565b80601f0160208091040260200160405190810160405280929190818152602001828054610d6a90612102565b8015610db75780601f10610d8c57610100808354040283529160200191610db7565b820191906000526020600020905b815481529060010190602001808311610d9a57829003601f168201915b5050505050905090565b610dc96113cc565b73ffffffffffffffffffffffffffffffffffffffff168273ffffffffffffffffffffffffffffffffffffffff161415610e37576040517f08c379a0000000000000000000000000000000000000000000000000000000008152600401610e2e90611e30565b60405180910390fd5b80600a6000610e446113cc565b73ffffffffffffffffffffffffffffffffffffffff1673ffffffffffffffffffffffffffffffffffffffff16815260200190815260200160002060008473ffffffffffffffffffffffffffffffffffffffff1673ffffffffffffffffffffffffffffffffffffffff16815260200190815260200160002060006101000a81548160ff0219169083151502179055508173ffffffffffffffffffffffffffffffffffffffff16610ef16113cc565b73ffffffffffffffffffffffffffffffffffffffff167f17307eab39ab6107e8899845ad3d59bd9653f200f220920489ca2b5937696c3183604051610f369190611dd3565b60405180910390a35050565b60038054610f4f90612102565b80601f0160208091040260200160405190810160405280929190818152602001828054610f7b90612102565b8015610fc85780601f10610f9d57610100808354040283529160200191610fc8565b820191906000526020600020905b815481529060010190602001808311610fab57829003601f168201915b505050505081565b5050505050565b60028054610fe490612102565b80601f016020809104026020016040519081016040528092919081815260200182805461101090612102565b801561105d5780601f106110325761010080835404028352916020019161105d565b820191906000526020600020905b81548152906001019060200180831161104057829003601f168201915b505050505081565b6000806000905060005b600654811015611114578473ffffffffffffffffffffffffffffffffffffffff166007600083815260200190815260200160002060009054906101000a900473ffffffffffffffffffffffffffffffffffffffff1673ffffffffffffffffffffffffffffffffffffffff16141561110157838214156110f257809250505061111a565b81806110fd90612165565b9250505b808061110c90612165565b91505061106f565b50600080fd5b92915050565b6000600a60008473ffffffffffffffffffffffffffffffffffffffff1673ffffffffffffffffffffffffffffffffffffffff16815260200190815260200160002060008373ffffffffffffffffffffffffffffffffffffffff1673ffffffffffffffffffffffffffffffffffffffff16815260200190815260200160002060009054906101000a900460ff16905092915050565b6111bc6113cc565b73ffffffffffffffffffffffffffffffffffffffff166111da610d06565b73ffffffffffffffffffffffffffffffffffffffff1614611230576040517f08c379a000000000000000000000000000000000000000000000000000000000815260040161122790611e90565b60405180910390fd5b600073ffffffffffffffffffffffffffffffffffffffff168173ffffffffffffffffffffffffffffffffffffffff1614156112a0576040517f08c379a000000000000000000000000000000000000000000000000000000000815260040161129790611e10565b60405180910390fd5b6112a9816116d4565b50565b6112b46113cc565b73ffffffffffffffffffffffffffffffffffffffff166112d2610d06565b73ffffffffffffffffffffffffffffffffffffffff1614611328576040517f08c379a000000000000000000000000000000000000000000000000000000000815260040161131f90611e90565b60405180910390fd5b600081905081600160006101000a81548173ffffffffffffffffffffffffffffffffffffffff021916908373ffffffffffffffffffffffffffffffffffffffff1602179055508173ffffffffffffffffffffffffffffffffffffffff168173ffffffffffffffffffffffffffffffffffffffff167f3b0007eb941cf645526cbb3a4fdaecda9d28ce4843167d9263b536a1f1edc0f660405160405180910390a35050565b600033905090565b60008073ffffffffffffffffffffffffffffffffffffffff166007600084815260200190815260200160002060009054906101000a900473ffffffffffffffffffffffffffffffffffffffff1673ffffffffffffffffffffffffffffffffffffffff1614159050919050565b600061144b826113d4565b61148a576040517f08c379a000000000000000000000000000000000000000000000000000000000815260040161148190611e50565b60405180910390fd5b60003073ffffffffffffffffffffffffffffffffffffffff16636352211e846040518263ffffffff1660e01b81526004016114c59190611f12565b60206040518083038186803b1580156114dd57600080fd5b505afa1580156114f1573d6000803e3d6000fd5b505050506040513d601f19601f820116820180604052508101906115159190611999565b90508073ffffffffffffffffffffffffffffffffffffffff168473ffffffffffffffffffffffffffffffffffffffff16148061158457508373ffffffffffffffffffffffffffffffffffffffff1661156c846107b3565b73ffffffffffffffffffffffffffffffffffffffff16145b8061159557506115948185611120565b5b91505092915050565b600860008373ffffffffffffffffffffffffffffffffffffffff1673ffffffffffffffffffffffffffffffffffffffff16815260200190815260200160002060008154809291906115ee90612165565b9190505550816007600083815260200190815260200160002060006101000a81548173ffffffffffffffffffffffffffffffffffffffff021916908373ffffffffffffffffffffffffffffffffffffffff160217905550600073ffffffffffffffffffffffffffffffffffffffff168373ffffffffffffffffffffffffffffffffffffffff16146116cf57600860008473ffffffffffffffffffffffffffffffffffffffff1673ffffffffffffffffffffffffffffffffffffffff16815260200190815260200160002060008154809291906116c9906120d8565b91905055505b505050565b60008060009054906101000a900473ffffffffffffffffffffffffffffffffffffffff169050816000806101000a81548173ffffffffffffffffffffffffffffffffffffffff021916908373ffffffffffffffffffffffffffffffffffffffff1602179055508173ffffffffffffffffffffffffffffffffffffffff168173ffffffffffffffffffffffffffffffffffffffff167f8be0079c531659141344cd1fd0a4f28419497f9722a3daafe3b4186f6b6457e060405160405180910390a35050565b8280546117a490612102565b90600052602060002090601f0160209004810192826117c6576000855561180d565b82601f106117df57805160ff191683800117855561180d565b8280016001018555821561180d579182015b8281111561180c5782518255916020019190600101906117f1565b5b50905061181a9190611838565b5090565b604051806040016040528060008152602001606081525090565b5b80821115611851576000816000905550600101611839565b5090565b600061186861186384611f90565b611f6b565b90508281526020810184848401111561188057600080fd5b61188b848285612096565b509392505050565b6000813590506118a281612403565b92915050565b6000815190506118b781612403565b92915050565b6000813590506118cc8161241a565b92915050565b6000813590506118e181612431565b92915050565b60008083601f8401126118f957600080fd5b8235905067ffffffffffffffff81111561191257600080fd5b60208301915083600182028301111561192a57600080fd5b9250929050565b600082601f83011261194257600080fd5b8135611952848260208601611855565b91505092915050565b60008135905061196a81612448565b92915050565b60006020828403121561198257600080fd5b600061199084828501611893565b91505092915050565b6000602082840312156119ab57600080fd5b60006119b9848285016118a8565b91505092915050565b600080604083850312156119d557600080fd5b60006119e385828601611893565b92505060206119f485828601611893565b9150509250929050565b600080600060608486031215611a1357600080fd5b6000611a2186828701611893565b9350506020611a3286828701611893565b9250506040611a438682870161195b565b9150509250925092565b600080600080600060808688031215611a6557600080fd5b6000611a7388828901611893565b9550506020611a8488828901611893565b9450506040611a958882890161195b565b935050606086013567ffffffffffffffff811115611ab257600080fd5b611abe888289016118e7565b92509250509295509295909350565b60008060408385031215611ae057600080fd5b6000611aee85828601611893565b9250506020611aff858286016118bd565b9150509250929050565b60008060408385031215611b1c57600080fd5b6000611b2a85828601611893565b9250506020611b3b8582860161195b565b9150509250929050565b600060208284031215611b5757600080fd5b6000611b65848285016118d2565b91505092915050565b600060208284031215611b8057600080fd5b600082013567ffffffffffffffff811115611b9a57600080fd5b611ba684828501611931565b91505092915050565b600060208284031215611bc157600080fd5b6000611bcf8482850161195b565b91505092915050565b611be181612022565b82525050565b611bf081612034565b82525050565b6000611c0182611fc1565b611c0b8185611fcc565b9350611c1b8185602086016120a5565b611c248161223b565b840191505092915050565b6000611c3a82611fc1565b611c448185611fdd565b9350611c548185602086016120a5565b611c5d8161223b565b840191505092915050565b6000611c75602683611fdd565b9150611c808261224c565b604082019050919050565b6000611c98601983611fdd565b9150611ca38261229b565b602082019050919050565b6000611cbb602c83611fdd565b9150611cc6826122c4565b604082019050919050565b6000611cde602c83611fdd565b9150611ce982612313565b604082019050919050565b6000611d01602083611fdd565b9150611d0c82612362565b602082019050919050565b6000611d24601283611fdd565b9150611d2f8261238b565b602082019050919050565b6000611d47602283611fdd565b9150611d52826123b4565b604082019050919050565b6000604083016000830151611d756000860182611d9a565b5060208301518482036020860152611d8d8282611bf6565b9150508091505092915050565b611da38161208c565b82525050565b611db28161208c565b82525050565b6000602082019050611dcd6000830184611bd8565b92915050565b6000602082019050611de86000830184611be7565b92915050565b60006020820190508181036000830152611e088184611c2f565b905092915050565b60006020820190508181036000830152611e2981611c68565b9050919050565b60006020820190508181036000830152611e4981611c8b565b9050919050565b60006020820190508181036000830152611e6981611cae565b9050919050565b60006020820190508181036000830152611e8981611cd1565b9050919050565b60006020820190508181036000830152611ea981611cf4565b9050919050565b60006020820190508181036000830152611ec981611d17565b9050919050565b60006020820190508181036000830152611ee981611d3a565b9050919050565b60006020820190508181036000830152611f0a8184611d5d565b905092915050565b6000602082019050611f276000830184611da9565b92915050565b6000606082019050611f426000830186611da9565b8181036020830152611f548185611c2f565b9050611f636040830184611da9565b949350505050565b6000611f75611f86565b9050611f818282612134565b919050565b6000604051905090565b600067ffffffffffffffff821115611fab57611faa61220c565b5b611fb48261223b565b9050602081019050919050565b600081519050919050565b600082825260208201905092915050565b600082825260208201905092915050565b6000611ff98261208c565b91506120048361208c565b925082821015612017576120166121ae565b5b828203905092915050565b600061202d8261206c565b9050919050565b60008115159050919050565b60007fffffffff0000000000000000000000000000000000000000000000000000000082169050919050565b600073ffffffffffffffffffffffffffffffffffffffff82169050919050565b6000819050919050565b82818337600083830152505050565b60005b838110156120c35780820151818401526020810190506120a8565b838111156120d2576000848401525b50505050565b60006120e38261208c565b915060008214156120f7576120f66121ae565b5b600182039050919050565b6000600282049050600182168061211a57607f821691505b6020821081141561212e5761212d6121dd565b5b50919050565b61213d8261223b565b810181811067ffffffffffffffff8211171561215c5761215b61220c565b5b80604052505050565b60006121708261208c565b91507fffffffffffffffffffffffffffffffffffffffffffffffffffffffffffffffff8214156121a3576121a26121ae565b5b600182019050919050565b7f4e487b7100000000000000000000000000000000000000000000000000000000600052601160045260246000fd5b7f4e487b7100000000000000000000000000000000000000000000000000000000600052602260045260246000fd5b7f4e487b7100000000000000000000000000000000000000000000000000000000600052604160045260246000fd5b6000601f19601f8301169050919050565b7f4f776e61626c653a206e6577206f776e657220697320746865207a65726f206160008201527f6464726573730000000000000000000000000000000000000000000000000000602082015250565b7f4552433732313a20617070726f766520746f2063616c6c657200000000000000600082015250565b7f4552433732313a206f70657261746f7220717565727920666f72206e6f6e657860008201527f697374656e7420746f6b656e0000000000000000000000000000000000000000602082015250565b7f4552433732313a20617070726f76656420717565727920666f72206e6f6e657860008201527f697374656e7420746f6b656e0000000000000000000000000000000000000000602082015250565b7f4f776e61626c653a2063616c6c6572206973206e6f7420746865206f776e6572600082015250565b7f55736572206e6f74206175746f72697a65640000000000000000000000000000600082015250565b7f4d696e7461626c653a2063616c6c6572206973206e6f7420746865206d696e7460008201527f6572000000000000000000000000000000000000000000000000000000000000602082015250565b61240c81612022565b811461241757600080fd5b50565b61242381612034565b811461242e57600080fd5b50565b61243a81612040565b811461244557600080fd5b50565b6124518161208c565b811461245c57600080fd5b5056fea264697066735822122055c61e9b523cf78d97721c4f21aade9f61df6c346b4c58b9d0ced046c656bb9a64736f6c63430008020033",
  "immutableReferences": {},
  "source": "// SPDX-License-Identifier: MIT\npragma solidity ^0.8.2;\n\nimport \"@openzeppelin/contracts/token/ERC721/IERC721.sol\";\nimport \"./MomentAccessControl.sol\";\n\ncontract IPLMoments is IERC721, MomentAccessControl {\n    string public _name = \"IPLMoments\";\n    string public _symbol = \"IPLM\";\n\n    struct Moment {\n        uint256 seriesId;\n        string url;\n    }\n\n    constructor() MomentAccessControl() {}\n\n    Moment[] internal moments;\n    uint256 internal seriesId = 0;\n\n    uint256 private _totalSupply = 0;\n    mapping(uint256 => address) private momentsOwners;\n    mapping(address => uint256) private ownershipTokenCount;\n    mapping(uint256 => address) private _tokenApprovals;\n    mapping(address => mapping(address => bool)) private _operatorApprovals;\n\n    event momentCreated(uint256 seriesId, string url, uint256 tokenId);\n\n    function name() public view returns (string memory) {\n        return _name;\n    }\n\n    function symbol() public view returns (string memory) {\n        return _symbol;\n    }\n\n    function createMoment(string memory _url)\n        public\n        onlyMinter\n        returns (uint256 newTokenId)\n    {\n        Moment memory newMoment = Moment({seriesId: seriesId, url: _url});\n        moments.push(newMoment);\n        newTokenId = moments.length - 1;\n        momentsOwners[newTokenId] = minter();\n\n        _totalSupply++;\n        ownershipTokenCount[minter()]++;\n\n        emit momentCreated(seriesId, _url, newTokenId);\n    }\n\n    function startNextSeries() public {\n        seriesId++;\n    }\n\n    function getSeriesId() public view returns (uint256) {\n        return seriesId;\n    }\n\n    function balanceOf(address owner)\n        public\n        view\n        override(IERC721)\n        returns (uint256 balance)\n    {\n        balance = ownershipTokenCount[owner];\n    }\n\n    function getMomentById(uint256 _tokenId)\n        public\n        view\n        returns (Moment memory)\n    {\n        return moments[_tokenId];\n    }\n\n    function getMomentsOfOwnerByIndex(address _owner, uint256 _index)\n        public\n        view\n        returns (uint256)\n    {\n        uint256 count = 0;\n        for (uint256 i = 0; i < _totalSupply; i++) {\n            if (momentsOwners[i] == _owner) {\n                if (count == _index) {\n                    return i;\n                } else {\n                    count++;\n                }\n            }\n        }\n        revert();\n    }\n\n    function totalSupply() public view returns (uint256) {\n        return _totalSupply;\n    }\n\n    function ownerOf(uint256 tokenId)\n        public\n        view\n        override(IERC721)\n        returns (address owner)\n    {\n        owner = momentsOwners[tokenId];\n    }\n\n    function _exists(uint256 tokenId) internal view returns (bool) {\n        return momentsOwners[tokenId] != address(0);\n    }\n\n    function setApprovalForAll(address operator, bool approved)\n        public\n        override(IERC721)\n    {\n        require(operator != _msgSender(), \"ERC721: approve to caller\");\n\n        _operatorApprovals[_msgSender()][operator] = approved;\n        emit ApprovalForAll(_msgSender(), operator, approved);\n    }\n\n    function getApproved(uint256 tokenId)\n        public\n        view\n        override(IERC721)\n        returns (address approvedTo)\n    {\n        require(\n            _exists(tokenId),\n            \"ERC721: approved query for nonexistent token\"\n        );\n\n        approvedTo = _tokenApprovals[tokenId];\n    }\n\n    function approve(address to, uint256 tokenId) public override(IERC721) {\n        require(to != address(0));\n        require(ownerOf(tokenId) == _msgSender());\n\n        _tokenApprovals[tokenId] = to;\n        emit Approval(_msgSender(), to, tokenId);\n    }\n\n    function isApprovedForAll(address owner, address operator)\n        public\n        view\n        override(IERC721)\n        returns (bool)\n    {\n        return _operatorApprovals[owner][operator];\n    }\n\n    function _isApprovedOrOwner(address spender, uint256 tokenId)\n        internal\n        view\n        returns (bool)\n    {\n        require(\n            _exists(tokenId),\n            \"ERC721: operator query for nonexistent token\"\n        );\n        address owner = this.ownerOf(tokenId);\n        return (spender == owner ||\n            getApproved(tokenId) == spender ||\n            isApprovedForAll(owner, spender));\n    }\n\n    function safeTransferFrom(\n        address _from,\n        address _to,\n        uint256 _tokenId\n    ) external virtual override {\n        transferFrom(_from, _to, _tokenId);\n    }\n\n    function transferFrom(\n        address _from,\n        address _to,\n        uint256 _tokenId\n    ) public virtual override(IERC721) onlyMinter {\n        require(_isApprovedOrOwner(_from, _tokenId), \"User not autorized\");\n        _transfer(_from, _to, _tokenId);\n        emit Transfer(_from, _to, _tokenId);\n    }\n\n    function _transfer(\n        address _from,\n        address _to,\n        uint256 _tokenId\n    ) internal {\n        ownershipTokenCount[_to]++;\n        momentsOwners[_tokenId] = _to;\n\n        if (_from != address(0)) {\n            ownershipTokenCount[_from]--;\n        }\n    }\n\n    function supportsInterface(bytes4 interfaceId)\n        public\n        pure\n        override\n        returns (bool)\n    {\n        return true;\n    }\n\n    function safeTransferFrom(\n        address from,\n        address to,\n        uint256 tokenId,\n        bytes calldata data\n    ) public override {}\n}\n",
  "sourcePath": "/home/calibraint/Documents/ipl-token/contract/contracts/Moments.sol",
  "compiler": {
    "name": "solc",
    "version": "0.8.2+commit.661d1103.Emscripten.clang"
  },
  "schemaVersion": "3.4.3",
  "updatedAt": "2021-09-13T10:29:01.663Z",
  "devdoc": {
    "kind": "dev",
    "methods": {
      "approve(address,uint256)": {
        "details": "Gives permission to `to` to transfer `tokenId` token to another account. The approval is cleared when the token is transferred. Only a single account can be approved at a time, so approving the zero address clears previous approvals. Requirements: - The caller must own the token or be an approved operator. - `tokenId` must exist. Emits an {Approval} event."
      },
      "balanceOf(address)": {
        "details": "Returns the number of tokens in ``owner``'s account."
      },
      "getApproved(uint256)": {
        "details": "Returns the account approved for `tokenId` token. Requirements: - `tokenId` must exist."
      },
      "isApprovedForAll(address,address)": {
        "details": "Returns if the `operator` is allowed to manage all of the assets of `owner`. See {setApprovalForAll}"
      },
      "owner()": {
        "details": "Returns the address of the current owner."
      },
      "ownerOf(uint256)": {
        "details": "Returns the owner of the `tokenId` token. Requirements: - `tokenId` must exist."
      },
      "renounceOwnership()": {
        "details": "Leaves the contract without owner. It will not be possible to call `onlyOwner` functions anymore. Can only be called by the current owner. NOTE: Renouncing ownership will leave the contract without an owner, thereby removing any functionality that is only available to the owner."
      },
      "safeTransferFrom(address,address,uint256,bytes)": {
        "details": "Safely transfers `tokenId` token from `from` to `to`. Requirements: - `from` cannot be the zero address. - `to` cannot be the zero address. - `tokenId` token must exist and be owned by `from`. - If the caller is not `from`, it must be approved to move this token by either {approve} or {setApprovalForAll}. - If `to` refers to a smart contract, it must implement {IERC721Receiver-onERC721Received}, which is called upon a safe transfer. Emits a {Transfer} event."
      },
      "supportsInterface(bytes4)": {
        "details": "Returns true if this contract implements the interface defined by `interfaceId`. See the corresponding https://eips.ethereum.org/EIPS/eip-165#how-interfaces-are-identified[EIP section] to learn more about how these ids are created. This function call must use less than 30 000 gas."
      },
      "transferOwnership(address)": {
        "details": "Transfers ownership of the contract to a new account (`newOwner`). Can only be called by the current owner."
      }
    },
    "version": 1
  },
  "userdoc": {
    "kind": "user",
    "methods": {},
    "version": 1
  }
}