{
  "contractName": "IPLMoments",
  "abi": [
    {
      "anonymous": false,
      "inputs": [
        {
          "indexed": true,
          "internalType": "address",
          "name": "owner",
          "type": "address"
        },
        {
          "indexed": true,
          "internalType": "address",
          "name": "approved",
          "type": "address"
        },
        {
          "indexed": true,
          "internalType": "uint256",
          "name": "tokenId",
          "type": "uint256"
        }
      ],
      "name": "Approval",
      "type": "event"
    },
    {
      "anonymous": false,
      "inputs": [
        {
          "indexed": true,
          "internalType": "address",
          "name": "owner",
          "type": "address"
        },
        {
          "indexed": true,
          "internalType": "address",
          "name": "operator",
          "type": "address"
        },
        {
          "indexed": false,
          "internalType": "bool",
          "name": "approved",
          "type": "bool"
        }
      ],
      "name": "ApprovalForAll",
      "type": "event"
    },
    {
      "anonymous": false,
      "inputs": [
        {
          "indexed": true,
          "internalType": "address",
          "name": "oldMinter",
          "type": "address"
        },
        {
          "indexed": true,
          "internalType": "address",
          "name": "newMinter",
          "type": "address"
        }
      ],
      "name": "MinterChanged",
      "type": "event"
    },
    {
      "anonymous": false,
      "inputs": [
        {
          "indexed": true,
          "internalType": "address",
          "name": "previousOwner",
          "type": "address"
        },
        {
          "indexed": true,
          "internalType": "address",
          "name": "newOwner",
          "type": "address"
        }
      ],
      "name": "OwnershipTransferred",
      "type": "event"
    },
    {
      "anonymous": false,
      "inputs": [
        {
          "indexed": true,
          "internalType": "address",
          "name": "from",
          "type": "address"
        },
        {
          "indexed": true,
          "internalType": "address",
          "name": "to",
          "type": "address"
        },
        {
          "indexed": true,
          "internalType": "uint256",
          "name": "tokenId",
          "type": "uint256"
        }
      ],
      "name": "Transfer",
      "type": "event"
    },
    {
      "anonymous": false,
      "inputs": [
        {
          "indexed": false,
          "internalType": "uint256",
          "name": "seriesId",
          "type": "uint256"
        },
        {
          "indexed": false,
          "internalType": "string",
          "name": "url",
          "type": "string"
        },
        {
          "indexed": false,
          "internalType": "uint256",
          "name": "tokenId",
          "type": "uint256"
        }
      ],
      "name": "momentCreated",
      "type": "event"
    },
    {
      "inputs": [],
      "name": "_name",
      "outputs": [
        {
          "internalType": "string",
          "name": "",
          "type": "string"
        }
      ],
      "stateMutability": "view",
      "type": "function"
    },
    {
      "inputs": [],
      "name": "_symbol",
      "outputs": [
        {
          "internalType": "string",
          "name": "",
          "type": "string"
        }
      ],
      "stateMutability": "view",
      "type": "function"
    },
    {
      "inputs": [],
      "name": "minter",
      "outputs": [
        {
          "internalType": "address",
          "name": "",
          "type": "address"
        }
      ],
      "stateMutability": "view",
      "type": "function"
    },
    {
      "inputs": [],
      "name": "owner",
      "outputs": [
        {
          "internalType": "address",
          "name": "",
          "type": "address"
        }
      ],
      "stateMutability": "view",
      "type": "function"
    },
    {
      "inputs": [],
      "name": "renounceOwnership",
      "outputs": [],
      "stateMutability": "nonpayable",
      "type": "function"
    },
    {
      "inputs": [
        {
          "internalType": "address",
          "name": "newMinter",
          "type": "address"
        }
      ],
      "name": "setMinter",
      "outputs": [],
      "stateMutability": "nonpayable",
      "type": "function"
    },
    {
      "inputs": [
        {
          "internalType": "address",
          "name": "newOwner",
          "type": "address"
        }
      ],
      "name": "transferOwnership",
      "outputs": [],
      "stateMutability": "nonpayable",
      "type": "function"
    },
    {
      "inputs": [],
      "name": "name",
      "outputs": [
        {
          "internalType": "string",
          "name": "",
          "type": "string"
        }
      ],
      "stateMutability": "view",
      "type": "function"
    },
    {
      "inputs": [],
      "name": "symbol",
      "outputs": [
        {
          "internalType": "string",
          "name": "",
          "type": "string"
        }
      ],
      "stateMutability": "view",
      "type": "function"
    },
    {
      "inputs": [
        {
          "internalType": "string",
          "name": "_url",
          "type": "string"
        },
        {
          "internalType": "string",
          "name": "playerName",
          "type": "string"
        }
      ],
      "name": "createMoment",
      "outputs": [],
      "stateMutability": "nonpayable",
      "type": "function"
    },
    {
      "inputs": [],
      "name": "startNextSeries",
      "outputs": [],
      "stateMutability": "nonpayable",
      "type": "function"
    },
    {
      "inputs": [],
      "name": "getSeriesId",
      "outputs": [
        {
          "internalType": "uint256",
          "name": "",
          "type": "uint256"
        }
      ],
      "stateMutability": "view",
      "type": "function"
    },
    {
      "inputs": [
        {
          "internalType": "address",
          "name": "owner",
          "type": "address"
        }
      ],
      "name": "balanceOf",
      "outputs": [
        {
          "internalType": "uint256",
          "name": "balance",
          "type": "uint256"
        }
      ],
      "stateMutability": "view",
      "type": "function"
    },
    {
      "inputs": [
        {
          "internalType": "uint256",
          "name": "_tokenId",
          "type": "uint256"
        }
      ],
      "name": "getMomentById",
      "outputs": [
        {
          "components": [
            {
              "internalType": "uint256",
              "name": "seriesId",
              "type": "uint256"
            },
            {
              "internalType": "string",
              "name": "url",
              "type": "string"
            },
            {
              "internalType": "uint256",
              "name": "momentId",
              "type": "uint256"
            },
            {
              "internalType": "uint8",
              "name": "tokenType",
              "type": "uint8"
            },
            {
              "internalType": "string",
              "name": "playerName",
              "type": "string"
            }
          ],
          "internalType": "struct IPLMoments.Moment",
          "name": "",
          "type": "tuple"
        }
      ],
      "stateMutability": "view",
      "type": "function"
    },
    {
      "inputs": [
        {
          "internalType": "address",
          "name": "_owner",
          "type": "address"
        },
        {
          "internalType": "uint256",
          "name": "_index",
          "type": "uint256"
        }
      ],
      "name": "getMomentsOfOwnerByIndex",
      "outputs": [
        {
          "internalType": "uint256",
          "name": "",
          "type": "uint256"
        }
      ],
      "stateMutability": "view",
      "type": "function"
    },
    {
      "inputs": [],
      "name": "totalSupply",
      "outputs": [
        {
          "internalType": "uint256",
          "name": "",
          "type": "uint256"
        }
      ],
      "stateMutability": "view",
      "type": "function"
    },
    {
      "inputs": [
        {
          "internalType": "uint256",
          "name": "tokenId",
          "type": "uint256"
        }
      ],
      "name": "ownerOf",
      "outputs": [
        {
          "internalType": "address",
          "name": "owner",
          "type": "address"
        }
      ],
      "stateMutability": "view",
      "type": "function"
    },
    {
      "inputs": [
        {
          "internalType": "address",
          "name": "operator",
          "type": "address"
        },
        {
          "internalType": "bool",
          "name": "approved",
          "type": "bool"
        }
      ],
      "name": "setApprovalForAll",
      "outputs": [],
      "stateMutability": "nonpayable",
      "type": "function"
    },
    {
      "inputs": [
        {
          "internalType": "uint256",
          "name": "tokenId",
          "type": "uint256"
        }
      ],
      "name": "getApproved",
      "outputs": [
        {
          "internalType": "address",
          "name": "approvedTo",
          "type": "address"
        }
      ],
      "stateMutability": "view",
      "type": "function"
    },
    {
      "inputs": [
        {
          "internalType": "address",
          "name": "to",
          "type": "address"
        },
        {
          "internalType": "uint256",
          "name": "tokenId",
          "type": "uint256"
        }
      ],
      "name": "approve",
      "outputs": [],
      "stateMutability": "nonpayable",
      "type": "function"
    },
    {
      "inputs": [
        {
          "internalType": "address",
          "name": "owner",
          "type": "address"
        },
        {
          "internalType": "address",
          "name": "operator",
          "type": "address"
        }
      ],
      "name": "isApprovedForAll",
      "outputs": [
        {
          "internalType": "bool",
          "name": "",
          "type": "bool"
        }
      ],
      "stateMutability": "view",
      "type": "function"
    },
    {
      "inputs": [
        {
          "internalType": "address",
          "name": "_from",
          "type": "address"
        },
        {
          "internalType": "address",
          "name": "_to",
          "type": "address"
        },
        {
          "internalType": "uint256",
          "name": "_tokenId",
          "type": "uint256"
        }
      ],
      "name": "transferFrom",
      "outputs": [],
      "stateMutability": "nonpayable",
      "type": "function"
    },
    {
      "inputs": [
        {
          "internalType": "bytes4",
          "name": "interfaceId",
          "type": "bytes4"
        }
      ],
      "name": "supportsInterface",
      "outputs": [
        {
          "internalType": "bool",
          "name": "",
          "type": "bool"
        }
      ],
      "stateMutability": "pure",
      "type": "function"
    },
    {
      "inputs": [
        {
          "internalType": "address",
          "name": "_from",
          "type": "address"
        },
        {
          "internalType": "address",
          "name": "_to",
          "type": "address"
        },
        {
          "internalType": "uint256",
          "name": "_tokenId",
          "type": "uint256"
        }
      ],
      "name": "safeTransferFrom",
      "outputs": [],
      "stateMutability": "nonpayable",
      "type": "function"
    },
    {
      "inputs": [
        {
          "internalType": "address",
          "name": "from",
          "type": "address"
        },
        {
          "internalType": "address",
          "name": "to",
          "type": "address"
        },
        {
          "internalType": "uint256",
          "name": "tokenId",
          "type": "uint256"
        },
        {
          "internalType": "bytes",
          "name": "data",
          "type": "bytes"
        }
      ],
      "name": "safeTransferFrom",
      "outputs": [],
      "stateMutability": "nonpayable",
      "type": "function"
    }
  ],
  "bytecode": "0x60806040526040518060400160405280600a81526020017f49504c4d6f6d656e747300000000000000000000000000000000000000000000815250600290805190602001906200005192919062000326565b506040518060400160405280600481526020017f49504c4d00000000000000000000000000000000000000000000000000000000815250600390805190602001906200009f92919062000326565b5060006005556000600655348015620000b757600080fd5b50620000d8620000cc620000fe60201b60201c565b6200010660201b60201c565b620000f8620000ec620000fe60201b60201c565b620001ca60201b60201c565b620004be565b600033905090565b60008060009054906101000a900473ffffffffffffffffffffffffffffffffffffffff169050816000806101000a81548173ffffffffffffffffffffffffffffffffffffffff021916908373ffffffffffffffffffffffffffffffffffffffff1602179055508173ffffffffffffffffffffffffffffffffffffffff168173ffffffffffffffffffffffffffffffffffffffff167f8be0079c531659141344cd1fd0a4f28419497f9722a3daafe3b4186f6b6457e060405160405180910390a35050565b620001da620000fe60201b60201c565b73ffffffffffffffffffffffffffffffffffffffff1662000200620002fd60201b60201c565b73ffffffffffffffffffffffffffffffffffffffff161462000259576040517f08c379a00000000000000000000000000000000000000000000000000000000081526004016200025090620003fd565b60405180910390fd5b600081905081600160006101000a81548173ffffffffffffffffffffffffffffffffffffffff021916908373ffffffffffffffffffffffffffffffffffffffff1602179055508173ffffffffffffffffffffffffffffffffffffffff168173ffffffffffffffffffffffffffffffffffffffff167f3b0007eb941cf645526cbb3a4fdaecda9d28ce4843167d9263b536a1f1edc0f660405160405180910390a35050565b60008060009054906101000a900473ffffffffffffffffffffffffffffffffffffffff16905090565b828054620003349062000430565b90600052602060002090601f016020900481019282620003585760008555620003a4565b82601f106200037357805160ff1916838001178555620003a4565b82800160010185558215620003a4579182015b82811115620003a357825182559160200191906001019062000386565b5b509050620003b39190620003b7565b5090565b5b80821115620003d2576000816000905550600101620003b8565b5090565b6000620003e56020836200041f565b9150620003f28262000495565b602082019050919050565b600060208201905081810360008301526200041881620003d6565b9050919050565b600082825260208201905092915050565b600060028204905060018216806200044957607f821691505b6020821081141562000460576200045f62000466565b5b50919050565b7f4e487b7100000000000000000000000000000000000000000000000000000000600052602260045260246000fd5b7f4f776e61626c653a2063616c6c6572206973206e6f7420746865206f776e6572600082015250565b61265b80620004ce6000396000f3fe608060405234801561001057600080fd5b50600436106101735760003560e01c806370a08231116100de578063b09f126611610097578063e8902b4a11610071578063e8902b4a14610414578063e985e9c514610444578063f2fde38b14610474578063fca3b5aa1461049057610173565b8063b09f1266146103bc578063b88d4fde146103da578063d28d8852146103f657610173565b806370a0823114610320578063715018a6146103505780637b35fb481461035a5780638da5cb5b1461036457806395d89b4114610382578063a22cb465146103a057610173565b806318160ddd1161013057806318160ddd1461026057806323b872dd1461027e57806342842e0e1461029a5780635279ad65146102b657806353c3a0ba146102d45780636352211e146102f057610173565b806301ffc9a71461017857806306fdde03146101a857806307546172146101c6578063081812fc146101e4578063095ea7b314610214578063129f766f14610230575b600080fd5b610192600480360381019061018d9190611c63565b6104ac565b60405161019f9190611f7a565b60405180910390f35b6101b06104b7565b6040516101bd9190611f95565b60405180910390f35b6101ce610549565b6040516101db9190611f5f565b60405180910390f35b6101fe60048036038101906101f99190611cf8565b610573565b60405161020b9190611f5f565b60405180910390f35b61022e60048036038101906102299190611c27565b6105f8565b005b61024a60048036038101906102459190611cf8565b610731565b6040516102579190612097565b60405180910390f35b6102686108e8565b60405161027591906120b9565b60405180910390f35b61029860048036038101906102939190611b1c565b6108f2565b005b6102b460048036038101906102af9190611b1c565b610a3d565b005b6102be610a4d565b6040516102cb91906120b9565b60405180910390f35b6102ee60048036038101906102e99190611c8c565b610a57565b005b61030a60048036038101906103059190611cf8565b610ce4565b6040516103179190611f5f565b60405180910390f35b61033a60048036038101906103359190611a8e565b610d21565b60405161034791906120b9565b60405180910390f35b610358610d6a565b005b610362610df2565b005b61036c610e0c565b6040516103799190611f5f565b60405180910390f35b61038a610e35565b6040516103979190611f95565b60405180910390f35b6103ba60048036038101906103b59190611beb565b610ec7565b005b6103c4611048565b6040516103d19190611f95565b60405180910390f35b6103f460048036038101906103ef9190611b6b565b6110d6565b005b6103fe6110dd565b60405161040b9190611f95565b60405180910390f35b61042e60048036038101906104299190611c27565b61116b565b60405161043b91906120b9565b60405180910390f35b61045e60048036038101906104599190611ae0565b611226565b60405161046b9190611f7a565b60405180910390f35b61048e60048036038101906104899190611a8e565b6112ba565b005b6104aa60048036038101906104a59190611a8e565b6113b2565b005b600060019050919050565b6060600280546104c6906122c8565b80601f01602080910402602001604051908101604052809291908181526020018280546104f2906122c8565b801561053f5780601f106105145761010080835404028352916020019161053f565b820191906000526020600020905b81548152906001019060200180831161052257829003601f168201915b5050505050905090565b6000600160009054906101000a900473ffffffffffffffffffffffffffffffffffffffff16905090565b600061057e826114d2565b6105bd576040517f08c379a00000000000000000000000000000000000000000000000000000000081526004016105b490612017565b60405180910390fd5b6009600083815260200190815260200160002060009054906101000a900473ffffffffffffffffffffffffffffffffffffffff169050919050565b600073ffffffffffffffffffffffffffffffffffffffff168273ffffffffffffffffffffffffffffffffffffffff16141561063257600080fd5b61063a61153e565b73ffffffffffffffffffffffffffffffffffffffff1661065982610ce4565b73ffffffffffffffffffffffffffffffffffffffff161461067957600080fd5b816009600083815260200190815260200160002060006101000a81548173ffffffffffffffffffffffffffffffffffffffff021916908373ffffffffffffffffffffffffffffffffffffffff160217905550808273ffffffffffffffffffffffffffffffffffffffff166106eb61153e565b73ffffffffffffffffffffffffffffffffffffffff167f8c5be1e5ebec7d5bd14f71427d1e84f3dd0314c0f7b2291e5b200ac8c7c3b92560405160405180910390a45050565b61073961189e565b60048281548110610773577f4e487b7100000000000000000000000000000000000000000000000000000000600052603260045260246000fd5b90600052602060002090600502016040518060a0016040529081600082015481526020016001820180546107a6906122c8565b80601f01602080910402602001604051908101604052809291908181526020018280546107d2906122c8565b801561081f5780601f106107f45761010080835404028352916020019161081f565b820191906000526020600020905b81548152906001019060200180831161080257829003601f168201915b50505050508152602001600282015481526020016003820160009054906101000a900460ff1660ff1660ff16815260200160048201805461085f906122c8565b80601f016020809104026020016040519081016040528092919081815260200182805461088b906122c8565b80156108d85780601f106108ad576101008083540402835291602001916108d8565b820191906000526020600020905b8154815290600101906020018083116108bb57829003601f168201915b5050505050815250509050919050565b6000600654905090565b600160009054906101000a900473ffffffffffffffffffffffffffffffffffffffff1673ffffffffffffffffffffffffffffffffffffffff1661093361153e565b73ffffffffffffffffffffffffffffffffffffffff1614610989576040517f08c379a000000000000000000000000000000000000000000000000000000000815260040161098090612077565b60405180910390fd5b6109938382611546565b6109d2576040517f08c379a00000000000000000000000000000000000000000000000000000000081526004016109c990612057565b60405180910390fd5b6109dd8383836116a4565b808273ffffffffffffffffffffffffffffffffffffffff168473ffffffffffffffffffffffffffffffffffffffff167fddf252ad1be2c89b69c2b068fc378daa952ba7f163c4a11628f55a4df523b3ef60405160405180910390a4505050565b610a488383836108f2565b505050565b6000600554905090565b600160009054906101000a900473ffffffffffffffffffffffffffffffffffffffff1673ffffffffffffffffffffffffffffffffffffffff16610a9861153e565b73ffffffffffffffffffffffffffffffffffffffff1614610aee576040517f08c379a0000000000000000000000000000000000000000000000000000000008152600401610ae590612077565b60405180910390fd5b60006040518060a001604052806005548152602001848152602001600a8152602001600960ff1681526020018381525090506004819080600181540180825580915050600190039060005260206000209060050201600090919091909150600082015181600001556020820151816001019080519060200190610b729291906118d0565b506040820151816002015560608201518160030160006101000a81548160ff021916908360ff1602179055506080820151816004019080519060200190610bba9291906118d0565b50505060006001600480549050610bd19190612195565b9050610bdb610549565b6007600083815260200190815260200160002060006101000a81548173ffffffffffffffffffffffffffffffffffffffff021916908373ffffffffffffffffffffffffffffffffffffffff16021790555060066000815480929190610c3f9061232b565b919050555060086000610c50610549565b73ffffffffffffffffffffffffffffffffffffffff1673ffffffffffffffffffffffffffffffffffffffff1681526020019081526020016000206000815480929190610c9b9061232b565b91905055507f664a9f72c6c59d5e5e6796eee9c34378ce62abe9593ada5bdc0564e23a16407b60055485600a604051610cd6939291906120d4565b60405180910390a150505050565b60006007600083815260200190815260200160002060009054906101000a900473ffffffffffffffffffffffffffffffffffffffff169050919050565b6000600860008373ffffffffffffffffffffffffffffffffffffffff1673ffffffffffffffffffffffffffffffffffffffff168152602001908152602001600020549050919050565b610d7261153e565b73ffffffffffffffffffffffffffffffffffffffff16610d90610e0c565b73ffffffffffffffffffffffffffffffffffffffff1614610de6576040517f08c379a0000000000000000000000000000000000000000000000000000000008152600401610ddd90612037565b60405180910390fd5b610df060006117da565b565b60056000815480929190610e059061232b565b9190505550565b60008060009054906101000a900473ffffffffffffffffffffffffffffffffffffffff16905090565b606060038054610e44906122c8565b80601f0160208091040260200160405190810160405280929190818152602001828054610e70906122c8565b8015610ebd5780601f10610e9257610100808354040283529160200191610ebd565b820191906000526020600020905b815481529060010190602001808311610ea057829003601f168201915b5050505050905090565b610ecf61153e565b73ffffffffffffffffffffffffffffffffffffffff168273ffffffffffffffffffffffffffffffffffffffff161415610f3d576040517f08c379a0000000000000000000000000000000000000000000000000000000008152600401610f3490611fd7565b60405180910390fd5b80600a6000610f4a61153e565b73ffffffffffffffffffffffffffffffffffffffff1673ffffffffffffffffffffffffffffffffffffffff16815260200190815260200160002060008473ffffffffffffffffffffffffffffffffffffffff1673ffffffffffffffffffffffffffffffffffffffff16815260200190815260200160002060006101000a81548160ff0219169083151502179055508173ffffffffffffffffffffffffffffffffffffffff16610ff761153e565b73ffffffffffffffffffffffffffffffffffffffff167f17307eab39ab6107e8899845ad3d59bd9653f200f220920489ca2b5937696c318360405161103c9190611f7a565b60405180910390a35050565b60038054611055906122c8565b80601f0160208091040260200160405190810160405280929190818152602001828054611081906122c8565b80156110ce5780601f106110a3576101008083540402835291602001916110ce565b820191906000526020600020905b8154815290600101906020018083116110b157829003601f168201915b505050505081565b5050505050565b600280546110ea906122c8565b80601f0160208091040260200160405190810160405280929190818152602001828054611116906122c8565b80156111635780601f1061113857610100808354040283529160200191611163565b820191906000526020600020905b81548152906001019060200180831161114657829003601f168201915b505050505081565b6000806000905060005b60065481101561121a578473ffffffffffffffffffffffffffffffffffffffff166007600083815260200190815260200160002060009054906101000a900473ffffffffffffffffffffffffffffffffffffffff1673ffffffffffffffffffffffffffffffffffffffff16141561120757838214156111f8578092505050611220565b81806112039061232b565b9250505b80806112129061232b565b915050611175565b50600080fd5b92915050565b6000600a60008473ffffffffffffffffffffffffffffffffffffffff1673ffffffffffffffffffffffffffffffffffffffff16815260200190815260200160002060008373ffffffffffffffffffffffffffffffffffffffff1673ffffffffffffffffffffffffffffffffffffffff16815260200190815260200160002060009054906101000a900460ff16905092915050565b6112c261153e565b73ffffffffffffffffffffffffffffffffffffffff166112e0610e0c565b73ffffffffffffffffffffffffffffffffffffffff1614611336576040517f08c379a000000000000000000000000000000000000000000000000000000000815260040161132d90612037565b60405180910390fd5b600073ffffffffffffffffffffffffffffffffffffffff168173ffffffffffffffffffffffffffffffffffffffff1614156113a6576040517f08c379a000000000000000000000000000000000000000000000000000000000815260040161139d90611fb7565b60405180910390fd5b6113af816117da565b50565b6113ba61153e565b73ffffffffffffffffffffffffffffffffffffffff166113d8610e0c565b73ffffffffffffffffffffffffffffffffffffffff161461142e576040517f08c379a000000000000000000000000000000000000000000000000000000000815260040161142590612037565b60405180910390fd5b600081905081600160006101000a81548173ffffffffffffffffffffffffffffffffffffffff021916908373ffffffffffffffffffffffffffffffffffffffff1602179055508173ffffffffffffffffffffffffffffffffffffffff168173ffffffffffffffffffffffffffffffffffffffff167f3b0007eb941cf645526cbb3a4fdaecda9d28ce4843167d9263b536a1f1edc0f660405160405180910390a35050565b60008073ffffffffffffffffffffffffffffffffffffffff166007600084815260200190815260200160002060009054906101000a900473ffffffffffffffffffffffffffffffffffffffff1673ffffffffffffffffffffffffffffffffffffffff1614159050919050565b600033905090565b6000611551826114d2565b611590576040517f08c379a000000000000000000000000000000000000000000000000000000000815260040161158790611ff7565b60405180910390fd5b60003073ffffffffffffffffffffffffffffffffffffffff16636352211e846040518263ffffffff1660e01b81526004016115cb91906120b9565b60206040518083038186803b1580156115e357600080fd5b505afa1580156115f7573d6000803e3d6000fd5b505050506040513d601f19601f8201168201806040525081019061161b9190611ab7565b90508073ffffffffffffffffffffffffffffffffffffffff168473ffffffffffffffffffffffffffffffffffffffff16148061168a57508373ffffffffffffffffffffffffffffffffffffffff1661167284610573565b73ffffffffffffffffffffffffffffffffffffffff16145b8061169b575061169a8185611226565b5b91505092915050565b600860008373ffffffffffffffffffffffffffffffffffffffff1673ffffffffffffffffffffffffffffffffffffffff16815260200190815260200160002060008154809291906116f49061232b565b9190505550816007600083815260200190815260200160002060006101000a81548173ffffffffffffffffffffffffffffffffffffffff021916908373ffffffffffffffffffffffffffffffffffffffff160217905550600073ffffffffffffffffffffffffffffffffffffffff168373ffffffffffffffffffffffffffffffffffffffff16146117d557600860008473ffffffffffffffffffffffffffffffffffffffff1673ffffffffffffffffffffffffffffffffffffffff16815260200190815260200160002060008154809291906117cf9061229e565b91905055505b505050565b60008060009054906101000a900473ffffffffffffffffffffffffffffffffffffffff169050816000806101000a81548173ffffffffffffffffffffffffffffffffffffffff021916908373ffffffffffffffffffffffffffffffffffffffff1602179055508173ffffffffffffffffffffffffffffffffffffffff168173ffffffffffffffffffffffffffffffffffffffff167f8be0079c531659141344cd1fd0a4f28419497f9722a3daafe3b4186f6b6457e060405160405180910390a35050565b6040518060a00160405280600081526020016060815260200160008152602001600060ff168152602001606081525090565b8280546118dc906122c8565b90600052602060002090601f0160209004810192826118fe5760008555611945565b82601f1061191757805160ff1916838001178555611945565b82800160010185558215611945579182015b82811115611944578251825591602001919060010190611929565b5b5090506119529190611956565b5090565b5b8082111561196f576000816000905550600101611957565b5090565b600061198661198184612137565b612112565b90508281526020810184848401111561199e57600080fd5b6119a984828561225c565b509392505050565b6000813590506119c0816125c9565b92915050565b6000815190506119d5816125c9565b92915050565b6000813590506119ea816125e0565b92915050565b6000813590506119ff816125f7565b92915050565b60008083601f840112611a1757600080fd5b8235905067ffffffffffffffff811115611a3057600080fd5b602083019150836001820283011115611a4857600080fd5b9250929050565b600082601f830112611a6057600080fd5b8135611a70848260208601611973565b91505092915050565b600081359050611a888161260e565b92915050565b600060208284031215611aa057600080fd5b6000611aae848285016119b1565b91505092915050565b600060208284031215611ac957600080fd5b6000611ad7848285016119c6565b91505092915050565b60008060408385031215611af357600080fd5b6000611b01858286016119b1565b9250506020611b12858286016119b1565b9150509250929050565b600080600060608486031215611b3157600080fd5b6000611b3f868287016119b1565b9350506020611b50868287016119b1565b9250506040611b6186828701611a79565b9150509250925092565b600080600080600060808688031215611b8357600080fd5b6000611b91888289016119b1565b9550506020611ba2888289016119b1565b9450506040611bb388828901611a79565b935050606086013567ffffffffffffffff811115611bd057600080fd5b611bdc88828901611a05565b92509250509295509295909350565b60008060408385031215611bfe57600080fd5b6000611c0c858286016119b1565b9250506020611c1d858286016119db565b9150509250929050565b60008060408385031215611c3a57600080fd5b6000611c48858286016119b1565b9250506020611c5985828601611a79565b9150509250929050565b600060208284031215611c7557600080fd5b6000611c83848285016119f0565b91505092915050565b60008060408385031215611c9f57600080fd5b600083013567ffffffffffffffff811115611cb957600080fd5b611cc585828601611a4f565b925050602083013567ffffffffffffffff811115611ce257600080fd5b611cee85828601611a4f565b9150509250929050565b600060208284031215611d0a57600080fd5b6000611d1884828501611a79565b91505092915050565b611d2a816121c9565b82525050565b611d39816121db565b82525050565b611d488161224a565b82525050565b6000611d5982612168565b611d638185612173565b9350611d7381856020860161226b565b611d7c81612401565b840191505092915050565b6000611d9282612168565b611d9c8185612184565b9350611dac81856020860161226b565b611db581612401565b840191505092915050565b6000611dcd602683612184565b9150611dd882612412565b604082019050919050565b6000611df0601983612184565b9150611dfb82612461565b602082019050919050565b6000611e13602c83612184565b9150611e1e8261248a565b604082019050919050565b6000611e36602c83612184565b9150611e41826124d9565b604082019050919050565b6000611e59602083612184565b9150611e6482612528565b602082019050919050565b6000611e7c601283612184565b9150611e8782612551565b602082019050919050565b6000611e9f602283612184565b9150611eaa8261257a565b604082019050919050565b600060a083016000830151611ecd6000860182611f32565b5060208301518482036020860152611ee58282611d4e565b9150506040830151611efa6040860182611f32565b506060830151611f0d6060860182611f50565b5060808301518482036080860152611f258282611d4e565b9150508091505092915050565b611f3b81612233565b82525050565b611f4a81612233565b82525050565b611f598161223d565b82525050565b6000602082019050611f746000830184611d21565b92915050565b6000602082019050611f8f6000830184611d30565b92915050565b60006020820190508181036000830152611faf8184611d87565b905092915050565b60006020820190508181036000830152611fd081611dc0565b9050919050565b60006020820190508181036000830152611ff081611de3565b9050919050565b6000602082019050818103600083015261201081611e06565b9050919050565b6000602082019050818103600083015261203081611e29565b9050919050565b6000602082019050818103600083015261205081611e4c565b9050919050565b6000602082019050818103600083015261207081611e6f565b9050919050565b6000602082019050818103600083015261209081611e92565b9050919050565b600060208201905081810360008301526120b18184611eb5565b905092915050565b60006020820190506120ce6000830184611f41565b92915050565b60006060820190506120e96000830186611f41565b81810360208301526120fb8185611d87565b905061210a6040830184611d3f565b949350505050565b600061211c61212d565b905061212882826122fa565b919050565b6000604051905090565b600067ffffffffffffffff821115612152576121516123d2565b5b61215b82612401565b9050602081019050919050565b600081519050919050565b600082825260208201905092915050565b600082825260208201905092915050565b60006121a082612233565b91506121ab83612233565b9250828210156121be576121bd612374565b5b828203905092915050565b60006121d482612213565b9050919050565b60008115159050919050565b60007fffffffff0000000000000000000000000000000000000000000000000000000082169050919050565b600073ffffffffffffffffffffffffffffffffffffffff82169050919050565b6000819050919050565b600060ff82169050919050565b600061225582612233565b9050919050565b82818337600083830152505050565b60005b8381101561228957808201518184015260208101905061226e565b83811115612298576000848401525b50505050565b60006122a982612233565b915060008214156122bd576122bc612374565b5b600182039050919050565b600060028204905060018216806122e057607f821691505b602082108114156122f4576122f36123a3565b5b50919050565b61230382612401565b810181811067ffffffffffffffff82111715612322576123216123d2565b5b80604052505050565b600061233682612233565b91507fffffffffffffffffffffffffffffffffffffffffffffffffffffffffffffffff82141561236957612368612374565b5b600182019050919050565b7f4e487b7100000000000000000000000000000000000000000000000000000000600052601160045260246000fd5b7f4e487b7100000000000000000000000000000000000000000000000000000000600052602260045260246000fd5b7f4e487b7100000000000000000000000000000000000000000000000000000000600052604160045260246000fd5b6000601f19601f8301169050919050565b7f4f776e61626c653a206e6577206f776e657220697320746865207a65726f206160008201527f6464726573730000000000000000000000000000000000000000000000000000602082015250565b7f4552433732313a20617070726f766520746f2063616c6c657200000000000000600082015250565b7f4552433732313a206f70657261746f7220717565727920666f72206e6f6e657860008201527f697374656e7420746f6b656e0000000000000000000000000000000000000000602082015250565b7f4552433732313a20617070726f76656420717565727920666f72206e6f6e657860008201527f697374656e7420746f6b656e0000000000000000000000000000000000000000602082015250565b7f4f776e61626c653a2063616c6c6572206973206e6f7420746865206f776e6572600082015250565b7f55736572206e6f74206175746f72697a65640000000000000000000000000000600082015250565b7f4d696e7461626c653a2063616c6c6572206973206e6f7420746865206d696e7460008201527f6572000000000000000000000000000000000000000000000000000000000000602082015250565b6125d2816121c9565b81146125dd57600080fd5b50565b6125e9816121db565b81146125f457600080fd5b50565b612600816121e7565b811461260b57600080fd5b50565b61261781612233565b811461262257600080fd5b5056fea264697066735822122028737991fb8de4eef2ddab43a280c03613d738db7f7981cdc5bd8119d93fe6ac64736f6c63430008020033",
  "immutableReferences": {},
  "source": "// SPDX-License-Identifier: MIT\npragma solidity ^0.8.2;\n\nimport \"@openzeppelin/contracts/token/ERC721/IERC721.sol\";\nimport \"./MomentAccessControl.sol\";\n\ncontract IPLMoments is IERC721, MomentAccessControl {\n    string public _name = \"IPLMoments\";\n    string public _symbol = \"IPLM\";\n\n    struct Moment {\n        uint256 seriesId;\n        string url;\n        uint256 momentId;\n        uint8 tokenType;\n        string playerName;\n    }\n\n    Moment[] internal moments;\n    uint256 internal seriesId = 0;\n\n    uint256 private _totalSupply = 0;\n    mapping(uint256 => address) private momentsOwners;\n    mapping(address => uint256) private ownershipTokenCount;\n    mapping(uint256 => address) private _tokenApprovals;\n    mapping(address => mapping(address => bool)) private _operatorApprovals;\n\n    mapping(uint8 => uint256) private _tokenType;\n\n    event momentCreated(uint256 seriesId, string url, uint256 tokenId);\n\n    function name() public view returns (string memory) {\n        return _name;\n    }\n\n    function symbol() public view returns (string memory) {\n        return _symbol;\n    }\n\n    function createMoment(string memory _url, string memory playerName)\n        public\n        onlyMinter\n    {\n        Moment memory newMoment = Moment({\n            seriesId: seriesId,\n            url: _url,\n            tokenType: 9,\n            momentId: 10,\n            playerName: playerName\n        });\n        moments.push(newMoment);\n        uint256 newTokenId = moments.length - 1;\n        momentsOwners[newTokenId] = minter();\n\n        _totalSupply++;\n        ownershipTokenCount[minter()]++;\n\n        emit momentCreated(seriesId, _url, 10);\n    }\n\n    function startNextSeries() public {\n        seriesId++;\n    }\n\n    function getSeriesId() public view returns (uint256) {\n        return seriesId;\n    }\n\n    function balanceOf(address owner)\n        public\n        view\n        override(IERC721)\n        returns (uint256 balance)\n    {\n        balance = ownershipTokenCount[owner];\n    }\n\n    function getMomentById(uint256 _tokenId)\n        public\n        view\n        returns (Moment memory)\n    {\n        return moments[_tokenId];\n    }\n\n    function getMomentsOfOwnerByIndex(address _owner, uint256 _index)\n        public\n        view\n        returns (uint256)\n    {\n        uint256 count = 0;\n        for (uint256 i = 0; i < _totalSupply; i++) {\n            if (momentsOwners[i] == _owner) {\n                if (count == _index) {\n                    return i;\n                } else {\n                    count++;\n                }\n            }\n        }\n        revert();\n    }\n\n    function totalSupply() public view returns (uint256) {\n        return _totalSupply;\n    }\n\n    function ownerOf(uint256 tokenId)\n        public\n        view\n        override(IERC721)\n        returns (address owner)\n    {\n        owner = momentsOwners[tokenId];\n    }\n\n    function _exists(uint256 tokenId) internal view returns (bool) {\n        return momentsOwners[tokenId] != address(0);\n    }\n\n    function setApprovalForAll(address operator, bool approved)\n        public\n        override(IERC721)\n    {\n        require(operator != _msgSender(), \"ERC721: approve to caller\");\n\n        _operatorApprovals[_msgSender()][operator] = approved;\n        emit ApprovalForAll(_msgSender(), operator, approved);\n    }\n\n    function getApproved(uint256 tokenId)\n        public\n        view\n        override(IERC721)\n        returns (address approvedTo)\n    {\n        require(\n            _exists(tokenId),\n            \"ERC721: approved query for nonexistent token\"\n        );\n\n        approvedTo = _tokenApprovals[tokenId];\n    }\n\n    function approve(address to, uint256 tokenId) public override(IERC721) {\n        require(to != address(0));\n        require(ownerOf(tokenId) == _msgSender());\n\n        _tokenApprovals[tokenId] = to;\n        emit Approval(_msgSender(), to, tokenId);\n    }\n\n    function isApprovedForAll(address owner, address operator)\n        public\n        view\n        override(IERC721)\n        returns (bool)\n    {\n        return _operatorApprovals[owner][operator];\n    }\n\n    function _isApprovedOrOwner(address spender, uint256 tokenId)\n        internal\n        view\n        returns (bool)\n    {\n        require(\n            _exists(tokenId),\n            \"ERC721: operator query for nonexistent token\"\n        );\n        address owner = this.ownerOf(tokenId);\n        return (spender == owner ||\n            getApproved(tokenId) == spender ||\n            isApprovedForAll(owner, spender));\n    }\n\n    function safeTransferFrom(\n        address _from,\n        address _to,\n        uint256 _tokenId\n    ) external virtual override {\n        transferFrom(_from, _to, _tokenId);\n    }\n\n    function transferFrom(\n        address _from,\n        address _to,\n        uint256 _tokenId\n    ) public virtual override(IERC721) onlyMinter {\n        require(_isApprovedOrOwner(_from, _tokenId), \"User not autorized\");\n        _transfer(_from, _to, _tokenId);\n        emit Transfer(_from, _to, _tokenId);\n    }\n\n    function _transfer(\n        address _from,\n        address _to,\n        uint256 _tokenId\n    ) internal {\n        ownershipTokenCount[_to]++;\n        momentsOwners[_tokenId] = _to;\n\n        if (_from != address(0)) {\n            ownershipTokenCount[_from]--;\n        }\n    }\n\n    function supportsInterface(bytes4 interfaceId)\n        public\n        pure\n        override\n        returns (bool)\n    {\n        return true;\n    }\n\n    function safeTransferFrom(\n        address from,\n        address to,\n        uint256 tokenId,\n        bytes calldata data\n    ) public override {}\n}\n",
  "sourcePath": "/home/calibraint/Documents/ipl-token/contract/contracts/Moments.sol",
  "compiler": {
    "name": "solc",
    "version": "0.8.2+commit.661d1103.Emscripten.clang"
  },
  "schemaVersion": "3.4.3",
  "updatedAt": "2021-09-21T07:09:37.146Z",
  "devdoc": {
    "kind": "dev",
    "methods": {
      "approve(address,uint256)": {
        "details": "Gives permission to `to` to transfer `tokenId` token to another account. The approval is cleared when the token is transferred. Only a single account can be approved at a time, so approving the zero address clears previous approvals. Requirements: - The caller must own the token or be an approved operator. - `tokenId` must exist. Emits an {Approval} event."
      },
      "balanceOf(address)": {
        "details": "Returns the number of tokens in ``owner``'s account."
      },
      "getApproved(uint256)": {
        "details": "Returns the account approved for `tokenId` token. Requirements: - `tokenId` must exist."
      },
      "isApprovedForAll(address,address)": {
        "details": "Returns if the `operator` is allowed to manage all of the assets of `owner`. See {setApprovalForAll}"
      },
      "owner()": {
        "details": "Returns the address of the current owner."
      },
      "ownerOf(uint256)": {
        "details": "Returns the owner of the `tokenId` token. Requirements: - `tokenId` must exist."
      },
      "renounceOwnership()": {
        "details": "Leaves the contract without owner. It will not be possible to call `onlyOwner` functions anymore. Can only be called by the current owner. NOTE: Renouncing ownership will leave the contract without an owner, thereby removing any functionality that is only available to the owner."
      },
      "safeTransferFrom(address,address,uint256,bytes)": {
        "details": "Safely transfers `tokenId` token from `from` to `to`. Requirements: - `from` cannot be the zero address. - `to` cannot be the zero address. - `tokenId` token must exist and be owned by `from`. - If the caller is not `from`, it must be approved to move this token by either {approve} or {setApprovalForAll}. - If `to` refers to a smart contract, it must implement {IERC721Receiver-onERC721Received}, which is called upon a safe transfer. Emits a {Transfer} event."
      },
      "supportsInterface(bytes4)": {
        "details": "Returns true if this contract implements the interface defined by `interfaceId`. See the corresponding https://eips.ethereum.org/EIPS/eip-165#how-interfaces-are-identified[EIP section] to learn more about how these ids are created. This function call must use less than 30 000 gas."
      },
      "transferOwnership(address)": {
        "details": "Transfers ownership of the contract to a new account (`newOwner`). Can only be called by the current owner."
      }
    },
    "version": 1
  },
  "userdoc": {
    "kind": "user",
    "methods": {},
    "version": 1
  }
}