{
  "contractName": "IPLToken",
  "abi": [
    {
      "inputs": [],
      "stateMutability": "nonpayable",
      "type": "constructor"
    },
    {
      "anonymous": false,
      "inputs": [
        {
          "indexed": true,
          "internalType": "address",
          "name": "owner",
          "type": "address"
        },
        {
          "indexed": true,
          "internalType": "address",
          "name": "spender",
          "type": "address"
        },
        {
          "indexed": false,
          "internalType": "uint256",
          "name": "value",
          "type": "uint256"
        }
      ],
      "name": "Approval",
      "type": "event"
    },
    {
      "anonymous": false,
      "inputs": [
        {
          "indexed": true,
          "internalType": "address",
          "name": "previousOwner",
          "type": "address"
        },
        {
          "indexed": true,
          "internalType": "address",
          "name": "newOwner",
          "type": "address"
        }
      ],
      "name": "OwnershipTransferred",
      "type": "event"
    },
    {
      "anonymous": false,
      "inputs": [
        {
          "indexed": true,
          "internalType": "address",
          "name": "from",
          "type": "address"
        },
        {
          "indexed": true,
          "internalType": "address",
          "name": "to",
          "type": "address"
        },
        {
          "indexed": false,
          "internalType": "uint256",
          "name": "value",
          "type": "uint256"
        }
      ],
      "name": "Transfer",
      "type": "event"
    },
    {
      "inputs": [],
      "name": "owner",
      "outputs": [
        {
          "internalType": "address",
          "name": "",
          "type": "address"
        }
      ],
      "stateMutability": "view",
      "type": "function",
      "constant": true
    },
    {
      "inputs": [],
      "name": "renounceOwnership",
      "outputs": [],
      "stateMutability": "nonpayable",
      "type": "function"
    },
    {
      "inputs": [
        {
          "internalType": "address",
          "name": "newOwner",
          "type": "address"
        }
      ],
      "name": "transferOwnership",
      "outputs": [],
      "stateMutability": "nonpayable",
      "type": "function"
    },
    {
      "inputs": [],
      "name": "totalSupply",
      "outputs": [
        {
          "internalType": "uint256",
          "name": "",
          "type": "uint256"
        }
      ],
      "stateMutability": "view",
      "type": "function",
      "constant": true
    },
    {
      "inputs": [],
      "name": "decimals",
      "outputs": [
        {
          "internalType": "uint8",
          "name": "",
          "type": "uint8"
        }
      ],
      "stateMutability": "pure",
      "type": "function",
      "constant": true
    },
    {
      "inputs": [],
      "name": "symbol",
      "outputs": [
        {
          "internalType": "string",
          "name": "",
          "type": "string"
        }
      ],
      "stateMutability": "view",
      "type": "function",
      "constant": true
    },
    {
      "inputs": [],
      "name": "name",
      "outputs": [
        {
          "internalType": "string",
          "name": "",
          "type": "string"
        }
      ],
      "stateMutability": "view",
      "type": "function",
      "constant": true
    },
    {
      "inputs": [],
      "name": "getOwner",
      "outputs": [
        {
          "internalType": "address",
          "name": "",
          "type": "address"
        }
      ],
      "stateMutability": "view",
      "type": "function",
      "constant": true
    },
    {
      "inputs": [
        {
          "internalType": "address",
          "name": "account",
          "type": "address"
        }
      ],
      "name": "balanceOf",
      "outputs": [
        {
          "internalType": "uint256",
          "name": "",
          "type": "uint256"
        }
      ],
      "stateMutability": "view",
      "type": "function",
      "constant": true
    },
    {
      "inputs": [
        {
          "internalType": "address",
          "name": "recipient",
          "type": "address"
        },
        {
          "internalType": "uint256",
          "name": "amount",
          "type": "uint256"
        }
      ],
      "name": "transfer",
      "outputs": [
        {
          "internalType": "bool",
          "name": "",
          "type": "bool"
        }
      ],
      "stateMutability": "nonpayable",
      "type": "function"
    },
    {
      "inputs": [
        {
          "internalType": "uint256",
          "name": "count",
          "type": "uint256"
        }
      ],
      "name": "mint",
      "outputs": [],
      "stateMutability": "nonpayable",
      "type": "function"
    },
    {
      "inputs": [
        {
          "internalType": "address",
          "name": "_owner",
          "type": "address"
        },
        {
          "internalType": "address",
          "name": "_spender",
          "type": "address"
        }
      ],
      "name": "allowance",
      "outputs": [
        {
          "internalType": "uint256",
          "name": "",
          "type": "uint256"
        }
      ],
      "stateMutability": "view",
      "type": "function",
      "constant": true
    },
    {
      "inputs": [
        {
          "internalType": "address",
          "name": "spender",
          "type": "address"
        },
        {
          "internalType": "uint256",
          "name": "amount",
          "type": "uint256"
        }
      ],
      "name": "approve",
      "outputs": [
        {
          "internalType": "bool",
          "name": "",
          "type": "bool"
        }
      ],
      "stateMutability": "nonpayable",
      "type": "function"
    },
    {
      "inputs": [
        {
          "internalType": "address",
          "name": "sender",
          "type": "address"
        },
        {
          "internalType": "address",
          "name": "recipient",
          "type": "address"
        },
        {
          "internalType": "uint256",
          "name": "amount",
          "type": "uint256"
        }
      ],
      "name": "transferFrom",
      "outputs": [
        {
          "internalType": "bool",
          "name": "",
          "type": "bool"
        }
      ],
      "stateMutability": "nonpayable",
      "type": "function"
    },
    {
      "inputs": [
        {
          "internalType": "address",
          "name": "_owner",
          "type": "address"
        },
        {
          "internalType": "address",
          "name": "_spender",
          "type": "address"
        },
        {
          "internalType": "uint256",
          "name": "_amount",
          "type": "uint256"
        }
      ],
      "name": "_isApprovedOrOwner",
      "outputs": [
        {
          "internalType": "bool",
          "name": "",
          "type": "bool"
        }
      ],
      "stateMutability": "view",
      "type": "function",
      "constant": true
    }
  ],
  "bytecode": "0x60806040526040518060400160405280600881526020017f49504c546f6b656e0000000000000000000000000000000000000000000000008152506001908051906020019062000051929190620001fe565b506040518060400160405280600481526020017f49504c5400000000000000000000000000000000000000000000000000000000815250600290805190602001906200009f929190620001fe565b50348015620000ad57600080fd5b50620000ce620000c26200013260201b60201c565b6200013a60201b60201c565b61c35060038190555060035460056000620000ee6200013260201b60201c565b73ffffffffffffffffffffffffffffffffffffffff1673ffffffffffffffffffffffffffffffffffffffff1681526020019081526020016000208190555062000313565b600033905090565b60008060009054906101000a900473ffffffffffffffffffffffffffffffffffffffff169050816000806101000a81548173ffffffffffffffffffffffffffffffffffffffff021916908373ffffffffffffffffffffffffffffffffffffffff1602179055508173ffffffffffffffffffffffffffffffffffffffff168173ffffffffffffffffffffffffffffffffffffffff167f8be0079c531659141344cd1fd0a4f28419497f9722a3daafe3b4186f6b6457e060405160405180910390a35050565b8280546200020c90620002ae565b90600052602060002090601f0160209004810192826200023057600085556200027c565b82601f106200024b57805160ff19168380011785556200027c565b828001600101855582156200027c579182015b828111156200027b5782518255916020019190600101906200025e565b5b5090506200028b91906200028f565b5090565b5b80821115620002aa57600081600090555060010162000290565b5090565b60006002820490506001821680620002c757607f821691505b60208210811415620002de57620002dd620002e4565b5b50919050565b7f4e487b7100000000000000000000000000000000000000000000000000000000600052602260045260246000fd5b6112d880620003236000396000f3fe608060405234801561001057600080fd5b50600436106100f55760003560e01c8063893d20e811610097578063a9059cbb11610066578063a9059cbb14610264578063dd62ed3e14610294578063f2fde38b146102c4578063f7e66828146102e0576100f5565b8063893d20e8146101ee5780638da5cb5b1461020c57806395d89b411461022a578063a0712d6814610248576100f5565b806323b872dd116100d357806323b872dd14610166578063313ce5671461019657806370a08231146101b4578063715018a6146101e4576100f5565b806306fdde03146100fa578063095ea7b31461011857806318160ddd14610148575b600080fd5b610102610310565b60405161010f9190610f72565b60405180910390f35b610132600480360381019061012d9190610df9565b6103a2565b60405161013f9190610f57565b60405180910390f35b610150610489565b60405161015d9190610ff4565b60405180910390f35b610180600480360381019061017b9190610daa565b610493565b60405161018d9190610f57565b60405180910390f35b61019e6106be565b6040516101ab919061100f565b60405180910390f35b6101ce60048036038101906101c99190610d45565b6106c3565b6040516101db9190610ff4565b60405180910390f35b6101ec61070c565b005b6101f6610794565b6040516102039190610f3c565b60405180910390f35b6102146107a3565b6040516102219190610f3c565b60405180910390f35b6102326107cc565b60405161023f9190610f72565b60405180910390f35b610262600480360381019061025d9190610e35565b61085e565b005b61027e60048036038101906102799190610df9565b610969565b60405161028b9190610f57565b60405180910390f35b6102ae60048036038101906102a99190610d6e565b610a7b565b6040516102bb9190610ff4565b60405180910390f35b6102de60048036038101906102d99190610d45565b610b02565b005b6102fa60048036038101906102f59190610daa565b610bfa565b6040516103079190610f57565b60405180910390f35b60606001805461031f90611158565b80601f016020809104026020016040519081016040528092919081815260200182805461034b90611158565b80156103985780601f1061036d57610100808354040283529160200191610398565b820191906000526020600020905b81548152906001019060200180831161037b57829003601f168201915b5050505050905090565b600081600560006103b1610c4f565b73ffffffffffffffffffffffffffffffffffffffff1673ffffffffffffffffffffffffffffffffffffffff1681526020019081526020016000205410156103f757600080fd5b8160066000610404610c4f565b73ffffffffffffffffffffffffffffffffffffffff1673ffffffffffffffffffffffffffffffffffffffff16815260200190815260200160002060008573ffffffffffffffffffffffffffffffffffffffff1673ffffffffffffffffffffffffffffffffffffffff168152602001908152602001600020819055506001905092915050565b6000600354905090565b600081600560008673ffffffffffffffffffffffffffffffffffffffff1673ffffffffffffffffffffffffffffffffffffffff1681526020019081526020016000205410156104e157600080fd5b6104f3846104ed610c4f565b84610bfa565b610532576040517f08c379a000000000000000000000000000000000000000000000000000000000815260040161052990610fd4565b60405180910390fd5b8373ffffffffffffffffffffffffffffffffffffffff16610551610c4f565b73ffffffffffffffffffffffffffffffffffffffff16146106075781600660008673ffffffffffffffffffffffffffffffffffffffff1673ffffffffffffffffffffffffffffffffffffffff16815260200190815260200160002060006105b6610c4f565b73ffffffffffffffffffffffffffffffffffffffff1673ffffffffffffffffffffffffffffffffffffffff16815260200190815260200160002060008282546105ff919061109c565b925050819055505b81600560008673ffffffffffffffffffffffffffffffffffffffff1673ffffffffffffffffffffffffffffffffffffffff1681526020019081526020016000206000828254610656919061109c565b9250508190555081600560008573ffffffffffffffffffffffffffffffffffffffff1673ffffffffffffffffffffffffffffffffffffffff16815260200190815260200160002060008282546106ac9190611046565b92505081905550600190509392505050565b600090565b6000600560008373ffffffffffffffffffffffffffffffffffffffff1673ffffffffffffffffffffffffffffffffffffffff168152602001908152602001600020549050919050565b610714610c4f565b73ffffffffffffffffffffffffffffffffffffffff166107326107a3565b73ffffffffffffffffffffffffffffffffffffffff1614610788576040517f08c379a000000000000000000000000000000000000000000000000000000000815260040161077f90610fb4565b60405180910390fd5b6107926000610c57565b565b600061079e6107a3565b905090565b60008060009054906101000a900473ffffffffffffffffffffffffffffffffffffffff16905090565b6060600280546107db90611158565b80601f016020809104026020016040519081016040528092919081815260200182805461080790611158565b80156108545780601f1061082957610100808354040283529160200191610854565b820191906000526020600020905b81548152906001019060200180831161083757829003601f168201915b5050505050905090565b610866610c4f565b73ffffffffffffffffffffffffffffffffffffffff166108846107a3565b73ffffffffffffffffffffffffffffffffffffffff16146108da576040517f08c379a00000000000000000000000000000000000000000000000000000000081526004016108d190610fb4565b60405180910390fd5b6108e2610489565b60045411156108f057600080fd5b80600560006108fd6107a3565b73ffffffffffffffffffffffffffffffffffffffff1673ffffffffffffffffffffffffffffffffffffffff16815260200190815260200160002060008282546109469190611046565b92505081905550806004600082825461095f9190611046565b9250508190555050565b60008160056000610978610c4f565b73ffffffffffffffffffffffffffffffffffffffff1673ffffffffffffffffffffffffffffffffffffffff1681526020019081526020016000205410156109be57600080fd5b81600560006109cb610c4f565b73ffffffffffffffffffffffffffffffffffffffff1673ffffffffffffffffffffffffffffffffffffffff1681526020019081526020016000206000828254610a14919061109c565b9250508190555081600560008573ffffffffffffffffffffffffffffffffffffffff1673ffffffffffffffffffffffffffffffffffffffff1681526020019081526020016000206000828254610a6a9190611046565b925050819055506001905092915050565b6000600660008473ffffffffffffffffffffffffffffffffffffffff1673ffffffffffffffffffffffffffffffffffffffff16815260200190815260200160002060008373ffffffffffffffffffffffffffffffffffffffff1673ffffffffffffffffffffffffffffffffffffffff16815260200190815260200160002054905092915050565b610b0a610c4f565b73ffffffffffffffffffffffffffffffffffffffff16610b286107a3565b73ffffffffffffffffffffffffffffffffffffffff1614610b7e576040517f08c379a0000000000000000000000000000000000000000000000000000000008152600401610b7590610fb4565b60405180910390fd5b600073ffffffffffffffffffffffffffffffffffffffff168173ffffffffffffffffffffffffffffffffffffffff161415610bee576040517f08c379a0000000000000000000000000000000000000000000000000000000008152600401610be590610f94565b60405180910390fd5b610bf781610c57565b50565b60008373ffffffffffffffffffffffffffffffffffffffff16610c1b610c4f565b73ffffffffffffffffffffffffffffffffffffffff161480610c46575081610c438585610a7b565b10155b90509392505050565b600033905090565b60008060009054906101000a900473ffffffffffffffffffffffffffffffffffffffff169050816000806101000a81548173ffffffffffffffffffffffffffffffffffffffff021916908373ffffffffffffffffffffffffffffffffffffffff1602179055508173ffffffffffffffffffffffffffffffffffffffff168173ffffffffffffffffffffffffffffffffffffffff167f8be0079c531659141344cd1fd0a4f28419497f9722a3daafe3b4186f6b6457e060405160405180910390a35050565b600081359050610d2a81611274565b92915050565b600081359050610d3f8161128b565b92915050565b600060208284031215610d5757600080fd5b6000610d6584828501610d1b565b91505092915050565b60008060408385031215610d8157600080fd5b6000610d8f85828601610d1b565b9250506020610da085828601610d1b565b9150509250929050565b600080600060608486031215610dbf57600080fd5b6000610dcd86828701610d1b565b9350506020610dde86828701610d1b565b9250506040610def86828701610d30565b9150509250925092565b60008060408385031215610e0c57600080fd5b6000610e1a85828601610d1b565b9250506020610e2b85828601610d30565b9150509250929050565b600060208284031215610e4757600080fd5b6000610e5584828501610d30565b91505092915050565b610e67816110d0565b82525050565b610e76816110e2565b82525050565b6000610e878261102a565b610e918185611035565b9350610ea1818560208601611125565b610eaa816111e8565b840191505092915050565b6000610ec2602683611035565b9150610ecd826111f9565b604082019050919050565b6000610ee5602083611035565b9150610ef082611248565b602082019050919050565b6000610f08600083611035565b9150610f1382611271565b600082019050919050565b610f278161110e565b82525050565b610f3681611118565b82525050565b6000602082019050610f516000830184610e5e565b92915050565b6000602082019050610f6c6000830184610e6d565b92915050565b60006020820190508181036000830152610f8c8184610e7c565b905092915050565b60006020820190508181036000830152610fad81610eb5565b9050919050565b60006020820190508181036000830152610fcd81610ed8565b9050919050565b60006020820190508181036000830152610fed81610efb565b9050919050565b60006020820190506110096000830184610f1e565b92915050565b60006020820190506110246000830184610f2d565b92915050565b600081519050919050565b600082825260208201905092915050565b60006110518261110e565b915061105c8361110e565b9250827fffffffffffffffffffffffffffffffffffffffffffffffffffffffffffffffff038211156110915761109061118a565b5b828201905092915050565b60006110a78261110e565b91506110b28361110e565b9250828210156110c5576110c461118a565b5b828203905092915050565b60006110db826110ee565b9050919050565b60008115159050919050565b600073ffffffffffffffffffffffffffffffffffffffff82169050919050565b6000819050919050565b600060ff82169050919050565b60005b83811015611143578082015181840152602081019050611128565b83811115611152576000848401525b50505050565b6000600282049050600182168061117057607f821691505b60208210811415611184576111836111b9565b5b50919050565b7f4e487b7100000000000000000000000000000000000000000000000000000000600052601160045260246000fd5b7f4e487b7100000000000000000000000000000000000000000000000000000000600052602260045260246000fd5b6000601f19601f8301169050919050565b7f4f776e61626c653a206e6577206f776e657220697320746865207a65726f206160008201527f6464726573730000000000000000000000000000000000000000000000000000602082015250565b7f4f776e61626c653a2063616c6c6572206973206e6f7420746865206f776e6572600082015250565b50565b61127d816110d0565b811461128857600080fd5b50565b6112948161110e565b811461129f57600080fd5b5056fea26469706673582212209191e17a356dc82124261ea9b5981e5e710f9a49c817fc095a175d0dd104d7b064736f6c63430008020033",
  "immutableReferences": {},
  "source": "// SPDX-License-Identifier: MIT\npragma solidity ^0.8.0;\n\nimport \"./IBEP20.sol\";\nimport \"@openzeppelin/contracts/access/Ownable.sol\";\n\ncontract IPLToken is IBEP20, Ownable {\n    string private _name = \"IPLToken\";\n    string private _symbol = \"IPLT\";\n    uint256 private _totalSupply;\n    uint256 private _tokensCount;\n    mapping(address => uint256) private _balance;\n    mapping(address => mapping(address => uint256)) private _allowance;\n\n    constructor() {\n        _totalSupply = 50000;\n        _balance[_msgSender()] = _totalSupply;\n    }\n\n    function totalSupply() public view override returns (uint256) {\n        return _totalSupply;\n    }\n\n    function decimals() public pure override returns (uint8) {\n        return 0;\n    }\n\n    function symbol() public view override returns (string memory) {\n        return _symbol;\n    }\n\n    function name() public view override returns (string memory) {\n        return _name;\n    }\n\n    function getOwner() public view override returns (address) {\n        return owner();\n    }\n\n    function balanceOf(address account) public view override returns (uint256) {\n        return _balance[account];\n    }\n\n    function transfer(address recipient, uint256 amount)\n        public\n        override\n        returns (bool)\n    {\n        require(_balance[_msgSender()] >= amount);\n\n        _balance[_msgSender()] -= amount;\n        _balance[recipient] += amount;\n\n        return true;\n    }\n\n    function mint(uint256 count) public onlyOwner {\n        require(_tokensCount <= totalSupply());\n        _balance[owner()] += count;\n        _tokensCount += count;\n    }\n\n    function allowance(address _owner, address _spender)\n        public\n        view\n        override\n        returns (uint256)\n    {\n        return _allowance[_owner][_spender];\n    }\n\n    function approve(address spender, uint256 amount)\n        public\n        override\n        returns (bool)\n    {\n        require(_balance[_msgSender()] >= amount);\n\n        _allowance[_msgSender()][spender] = amount;\n\n        return true;\n    }\n\n    function transferFrom(\n        address sender,\n        address recipient,\n        uint256 amount\n    ) public override returns (bool) {\n        require(_balance[sender] >= amount);\n        require(_isApprovedOrOwner(sender, _msgSender(), amount), \"\");\n\n        if (_msgSender() != sender) {\n            _allowance[sender][_msgSender()] -= amount;\n        }\n\n        _balance[sender] -= amount;\n        _balance[recipient] += amount;\n\n        return true;\n    }\n\n    function _isApprovedOrOwner(\n        address _owner,\n        address _spender,\n        uint256 _amount\n    ) public view returns (bool) {\n        return (_msgSender() == _owner ||\n            allowance(_owner, _spender) >= _amount);\n    }\n}\n",
  "sourcePath": "/home/calibraint/Documents/ipl-token/contract/contracts/IPLToken.sol",
  "compiler": {
    "name": "solc",
    "version": "0.8.2+commit.661d1103.Emscripten.clang"
  },
  "schemaVersion": "3.4.3",
  "updatedAt": "2021-09-21T07:09:50.672Z",
  "networkType": "ethereum",
  "devdoc": {
    "kind": "dev",
    "methods": {
      "approve(address,uint256)": {
        "details": "Sets `amount` as the allowance of `spender` over the caller's tokens. Returns a boolean value indicating whether the operation succeeded. IMPORTANT: Beware that changing an allowance with this method brings the risk that someone may use both the old and the new allowance by unfortunate transaction ordering. One possible solution to mitigate this race condition is to first reduce the spender's allowance to 0 and set the desired value afterwards: https://github.com/ethereum/EIPs/issues/20#issuecomment-263524729 Emits an {Approval} event."
      },
      "balanceOf(address)": {
        "details": "Returns the amount of tokens owned by `account`."
      },
      "decimals()": {
        "details": "Returns the token decimals."
      },
      "getOwner()": {
        "details": "Returns the bep token owner."
      },
      "name()": {
        "details": "Returns the token name."
      },
      "owner()": {
        "details": "Returns the address of the current owner."
      },
      "renounceOwnership()": {
        "details": "Leaves the contract without owner. It will not be possible to call `onlyOwner` functions anymore. Can only be called by the current owner. NOTE: Renouncing ownership will leave the contract without an owner, thereby removing any functionality that is only available to the owner."
      },
      "symbol()": {
        "details": "Returns the token symbol."
      },
      "totalSupply()": {
        "details": "Returns the amount of tokens in existence."
      },
      "transfer(address,uint256)": {
        "details": "Moves `amount` tokens from the caller's account to `recipient`. Returns a boolean value indicating whether the operation succeeded. Emits a {Transfer} event."
      },
      "transferFrom(address,address,uint256)": {
        "details": "Moves `amount` tokens from `sender` to `recipient` using the allowance mechanism. `amount` is then deducted from the caller's allowance. Returns a boolean value indicating whether the operation succeeded. Emits a {Transfer} event."
      },
      "transferOwnership(address)": {
        "details": "Transfers ownership of the contract to a new account (`newOwner`). Can only be called by the current owner."
      }
    },
    "version": 1
  },
  "userdoc": {
    "kind": "user",
    "methods": {},
    "version": 1
  }
}