{
  "contractName": "MomentSale",
  "abi": [
    {
      "inputs": [
        {
          "internalType": "address",
          "name": "contractAddress",
          "type": "address"
        }
      ],
      "stateMutability": "nonpayable",
      "type": "constructor"
    },
    {
      "anonymous": false,
      "inputs": [
        {
          "indexed": true,
          "internalType": "address",
          "name": "owner",
          "type": "address"
        },
        {
          "indexed": true,
          "internalType": "address",
          "name": "approved",
          "type": "address"
        },
        {
          "indexed": true,
          "internalType": "uint256",
          "name": "tokenId",
          "type": "uint256"
        }
      ],
      "name": "Approval",
      "type": "event"
    },
    {
      "anonymous": false,
      "inputs": [
        {
          "indexed": true,
          "internalType": "address",
          "name": "owner",
          "type": "address"
        },
        {
          "indexed": true,
          "internalType": "address",
          "name": "operator",
          "type": "address"
        },
        {
          "indexed": false,
          "internalType": "bool",
          "name": "approved",
          "type": "bool"
        }
      ],
      "name": "ApprovalForAll",
      "type": "event"
    },
    {
      "anonymous": false,
      "inputs": [
        {
          "indexed": true,
          "internalType": "address",
          "name": "oldMinter",
          "type": "address"
        },
        {
          "indexed": true,
          "internalType": "address",
          "name": "newMinter",
          "type": "address"
        }
      ],
      "name": "MinterChanged",
      "type": "event"
    },
    {
      "anonymous": false,
      "inputs": [
        {
          "indexed": true,
          "internalType": "address",
          "name": "previousOwner",
          "type": "address"
        },
        {
          "indexed": true,
          "internalType": "address",
          "name": "newOwner",
          "type": "address"
        }
      ],
      "name": "OwnershipTransferred",
      "type": "event"
    },
    {
      "anonymous": false,
      "inputs": [
        {
          "indexed": true,
          "internalType": "address",
          "name": "from",
          "type": "address"
        },
        {
          "indexed": true,
          "internalType": "address",
          "name": "to",
          "type": "address"
        },
        {
          "indexed": true,
          "internalType": "uint256",
          "name": "tokenId",
          "type": "uint256"
        }
      ],
      "name": "Transfer",
      "type": "event"
    },
    {
      "anonymous": false,
      "inputs": [
        {
          "indexed": false,
          "internalType": "uint256",
          "name": "seriesId",
          "type": "uint256"
        },
        {
          "indexed": false,
          "internalType": "string",
          "name": "url",
          "type": "string"
        },
        {
          "indexed": false,
          "internalType": "uint256",
          "name": "tokenId",
          "type": "uint256"
        }
      ],
      "name": "momentCreated",
      "type": "event"
    },
    {
      "anonymous": false,
      "inputs": [
        {
          "indexed": false,
          "internalType": "address",
          "name": "from",
          "type": "address"
        },
        {
          "indexed": false,
          "internalType": "address",
          "name": "to",
          "type": "address"
        },
        {
          "indexed": false,
          "internalType": "uint256",
          "name": "tokenId",
          "type": "uint256"
        }
      ],
      "name": "momentSold",
      "type": "event"
    },
    {
      "inputs": [],
      "name": "_name",
      "outputs": [
        {
          "internalType": "string",
          "name": "",
          "type": "string"
        }
      ],
      "stateMutability": "view",
      "type": "function",
      "constant": true
    },
    {
      "inputs": [],
      "name": "_symbol",
      "outputs": [
        {
          "internalType": "string",
          "name": "",
          "type": "string"
        }
      ],
      "stateMutability": "view",
      "type": "function",
      "constant": true
    },
    {
      "inputs": [
        {
          "internalType": "address",
          "name": "to",
          "type": "address"
        },
        {
          "internalType": "uint256",
          "name": "tokenId",
          "type": "uint256"
        }
      ],
      "name": "approve",
      "outputs": [],
      "stateMutability": "nonpayable",
      "type": "function"
    },
    {
      "inputs": [
        {
          "internalType": "address",
          "name": "owner",
          "type": "address"
        }
      ],
      "name": "balanceOf",
      "outputs": [
        {
          "internalType": "uint256",
          "name": "balance",
          "type": "uint256"
        }
      ],
      "stateMutability": "view",
      "type": "function",
      "constant": true
    },
    {
      "inputs": [
        {
          "internalType": "string",
          "name": "_url",
          "type": "string"
        }
      ],
      "name": "createMoment",
      "outputs": [
        {
          "internalType": "uint256",
          "name": "newTokenId",
          "type": "uint256"
        }
      ],
      "stateMutability": "nonpayable",
      "type": "function"
    },
    {
      "inputs": [
        {
          "internalType": "uint256",
          "name": "tokenId",
          "type": "uint256"
        }
      ],
      "name": "getApproved",
      "outputs": [
        {
          "internalType": "address",
          "name": "approvedTo",
          "type": "address"
        }
      ],
      "stateMutability": "view",
      "type": "function",
      "constant": true
    },
    {
      "inputs": [
        {
          "internalType": "uint256",
          "name": "_tokenId",
          "type": "uint256"
        }
      ],
      "name": "getMomentById",
      "outputs": [
        {
          "components": [
            {
              "internalType": "uint256",
              "name": "seriesId",
              "type": "uint256"
            },
            {
              "internalType": "string",
              "name": "url",
              "type": "string"
            }
          ],
          "internalType": "struct IPLMoments.Moment",
          "name": "",
          "type": "tuple"
        }
      ],
      "stateMutability": "view",
      "type": "function",
      "constant": true
    },
    {
      "inputs": [
        {
          "internalType": "address",
          "name": "_owner",
          "type": "address"
        },
        {
          "internalType": "uint256",
          "name": "_index",
          "type": "uint256"
        }
      ],
      "name": "getMomentsOfOwnerByIndex",
      "outputs": [
        {
          "internalType": "uint256",
          "name": "",
          "type": "uint256"
        }
      ],
      "stateMutability": "view",
      "type": "function",
      "constant": true
    },
    {
      "inputs": [],
      "name": "getSeriesId",
      "outputs": [
        {
          "internalType": "uint256",
          "name": "",
          "type": "uint256"
        }
      ],
      "stateMutability": "view",
      "type": "function",
      "constant": true
    },
    {
      "inputs": [
        {
          "internalType": "address",
          "name": "owner",
          "type": "address"
        },
        {
          "internalType": "address",
          "name": "operator",
          "type": "address"
        }
      ],
      "name": "isApprovedForAll",
      "outputs": [
        {
          "internalType": "bool",
          "name": "",
          "type": "bool"
        }
      ],
      "stateMutability": "view",
      "type": "function",
      "constant": true
    },
    {
      "inputs": [],
      "name": "minter",
      "outputs": [
        {
          "internalType": "address",
          "name": "",
          "type": "address"
        }
      ],
      "stateMutability": "view",
      "type": "function",
      "constant": true
    },
    {
      "inputs": [],
      "name": "name",
      "outputs": [
        {
          "internalType": "string",
          "name": "",
          "type": "string"
        }
      ],
      "stateMutability": "view",
      "type": "function",
      "constant": true
    },
    {
      "inputs": [],
      "name": "owner",
      "outputs": [
        {
          "internalType": "address",
          "name": "",
          "type": "address"
        }
      ],
      "stateMutability": "view",
      "type": "function",
      "constant": true
    },
    {
      "inputs": [
        {
          "internalType": "uint256",
          "name": "tokenId",
          "type": "uint256"
        }
      ],
      "name": "ownerOf",
      "outputs": [
        {
          "internalType": "address",
          "name": "owner",
          "type": "address"
        }
      ],
      "stateMutability": "view",
      "type": "function",
      "constant": true
    },
    {
      "inputs": [],
      "name": "renounceOwnership",
      "outputs": [],
      "stateMutability": "nonpayable",
      "type": "function"
    },
    {
      "inputs": [
        {
          "internalType": "address",
          "name": "_from",
          "type": "address"
        },
        {
          "internalType": "address",
          "name": "_to",
          "type": "address"
        },
        {
          "internalType": "uint256",
          "name": "_tokenId",
          "type": "uint256"
        }
      ],
      "name": "safeTransferFrom",
      "outputs": [],
      "stateMutability": "nonpayable",
      "type": "function"
    },
    {
      "inputs": [
        {
          "internalType": "address",
          "name": "from",
          "type": "address"
        },
        {
          "internalType": "address",
          "name": "to",
          "type": "address"
        },
        {
          "internalType": "uint256",
          "name": "tokenId",
          "type": "uint256"
        },
        {
          "internalType": "bytes",
          "name": "data",
          "type": "bytes"
        }
      ],
      "name": "safeTransferFrom",
      "outputs": [],
      "stateMutability": "nonpayable",
      "type": "function"
    },
    {
      "inputs": [
        {
          "internalType": "address",
          "name": "operator",
          "type": "address"
        },
        {
          "internalType": "bool",
          "name": "approved",
          "type": "bool"
        }
      ],
      "name": "setApprovalForAll",
      "outputs": [],
      "stateMutability": "nonpayable",
      "type": "function"
    },
    {
      "inputs": [
        {
          "internalType": "address",
          "name": "newMinter",
          "type": "address"
        }
      ],
      "name": "setMinter",
      "outputs": [],
      "stateMutability": "nonpayable",
      "type": "function"
    },
    {
      "inputs": [],
      "name": "startNextSeries",
      "outputs": [],
      "stateMutability": "nonpayable",
      "type": "function"
    },
    {
      "inputs": [
        {
          "internalType": "bytes4",
          "name": "interfaceId",
          "type": "bytes4"
        }
      ],
      "name": "supportsInterface",
      "outputs": [
        {
          "internalType": "bool",
          "name": "",
          "type": "bool"
        }
      ],
      "stateMutability": "pure",
      "type": "function",
      "constant": true
    },
    {
      "inputs": [],
      "name": "symbol",
      "outputs": [
        {
          "internalType": "string",
          "name": "",
          "type": "string"
        }
      ],
      "stateMutability": "view",
      "type": "function",
      "constant": true
    },
    {
      "inputs": [],
      "name": "totalSupply",
      "outputs": [
        {
          "internalType": "uint256",
          "name": "",
          "type": "uint256"
        }
      ],
      "stateMutability": "view",
      "type": "function",
      "constant": true
    },
    {
      "inputs": [
        {
          "internalType": "address",
          "name": "_from",
          "type": "address"
        },
        {
          "internalType": "address",
          "name": "_to",
          "type": "address"
        },
        {
          "internalType": "uint256",
          "name": "_tokenId",
          "type": "uint256"
        }
      ],
      "name": "transferFrom",
      "outputs": [],
      "stateMutability": "nonpayable",
      "type": "function"
    },
    {
      "inputs": [
        {
          "internalType": "address",
          "name": "newOwner",
          "type": "address"
        }
      ],
      "name": "transferOwnership",
      "outputs": [],
      "stateMutability": "nonpayable",
      "type": "function"
    },
    {
      "inputs": [
        {
          "internalType": "address",
          "name": "contractAddress",
          "type": "address"
        }
      ],
      "name": "setIPLToken",
      "outputs": [],
      "stateMutability": "nonpayable",
      "type": "function"
    },
    {
      "inputs": [
        {
          "internalType": "uint256",
          "name": "tokenId",
          "type": "uint256"
        },
        {
          "internalType": "uint256",
          "name": "price",
          "type": "uint256"
        }
      ],
      "name": "createSale",
      "outputs": [
        {
          "internalType": "uint256",
          "name": "",
          "type": "uint256"
        }
      ],
      "stateMutability": "nonpayable",
      "type": "function"
    },
    {
      "inputs": [
        {
          "internalType": "uint256",
          "name": "saleId",
          "type": "uint256"
        }
      ],
      "name": "getSaleById",
      "outputs": [
        {
          "components": [
            {
              "internalType": "address",
              "name": "seller",
              "type": "address"
            },
            {
              "internalType": "uint256",
              "name": "price",
              "type": "uint256"
            },
            {
              "internalType": "uint256",
              "name": "tokenId",
              "type": "uint256"
            },
            {
              "internalType": "uint256",
              "name": "saleId",
              "type": "uint256"
            },
            {
              "internalType": "bool",
              "name": "saleDone",
              "type": "bool"
            }
          ],
          "internalType": "struct MomentSale.Sale",
          "name": "sale",
          "type": "tuple"
        }
      ],
      "stateMutability": "view",
      "type": "function",
      "constant": true
    },
    {
      "inputs": [
        {
          "internalType": "uint256",
          "name": "saleId",
          "type": "uint256"
        }
      ],
      "name": "buyMoment",
      "outputs": [],
      "stateMutability": "nonpayable",
      "type": "function"
    },
    {
      "inputs": [],
      "name": "totalSales",
      "outputs": [
        {
          "internalType": "uint256",
          "name": "",
          "type": "uint256"
        }
      ],
      "stateMutability": "view",
      "type": "function",
      "constant": true
    }
  ],
  "bytecode": "0x60806040526040518060400160405280600a81526020017f49504c4d6f6d656e74730000000000000000000000000000000000000000000081525060029080519060200190620000519291906200038d565b506040518060400160405280600481526020017f49504c4d00000000000000000000000000000000000000000000000000000000815250600390805190602001906200009f9291906200038d565b5060006005556000600655348015620000b757600080fd5b5060405162003335380380620033358339818101604052810190620000dd919062000454565b620000fd620000f16200016560201b60201c565b6200016d60201b60201c565b6200011d620001116200016560201b60201c565b6200023160201b60201c565b80600c60006101000a81548173ffffffffffffffffffffffffffffffffffffffff021916908373ffffffffffffffffffffffffffffffffffffffff16021790555050620005b6565b600033905090565b60008060009054906101000a900473ffffffffffffffffffffffffffffffffffffffff169050816000806101000a81548173ffffffffffffffffffffffffffffffffffffffff021916908373ffffffffffffffffffffffffffffffffffffffff1602179055508173ffffffffffffffffffffffffffffffffffffffff168173ffffffffffffffffffffffffffffffffffffffff167f8be0079c531659141344cd1fd0a4f28419497f9722a3daafe3b4186f6b6457e060405160405180910390a35050565b620002416200016560201b60201c565b73ffffffffffffffffffffffffffffffffffffffff16620002676200036460201b60201c565b73ffffffffffffffffffffffffffffffffffffffff1614620002c0576040517f08c379a0000000000000000000000000000000000000000000000000000000008152600401620002b790620004a7565b60405180910390fd5b600081905081600160006101000a81548173ffffffffffffffffffffffffffffffffffffffff021916908373ffffffffffffffffffffffffffffffffffffffff1602179055508173ffffffffffffffffffffffffffffffffffffffff168173ffffffffffffffffffffffffffffffffffffffff167f3b0007eb941cf645526cbb3a4fdaecda9d28ce4843167d9263b536a1f1edc0f660405160405180910390a35050565b60008060009054906101000a900473ffffffffffffffffffffffffffffffffffffffff16905090565b8280546200039b906200050e565b90600052602060002090601f016020900481019282620003bf57600085556200040b565b82601f10620003da57805160ff19168380011785556200040b565b828001600101855582156200040b579182015b828111156200040a578251825591602001919060010190620003ed565b5b5090506200041a91906200041e565b5090565b5b80821115620004395760008160009055506001016200041f565b5090565b6000815190506200044e816200059c565b92915050565b6000602082840312156200046757600080fd5b600062000477848285016200043d565b91505092915050565b60006200048f602083620004c9565b91506200049c8262000573565b602082019050919050565b60006020820190508181036000830152620004c28162000480565b9050919050565b600082825260208201905092915050565b6000620004e782620004ee565b9050919050565b600073ffffffffffffffffffffffffffffffffffffffff82169050919050565b600060028204905060018216806200052757607f821691505b602082108114156200053e576200053d62000544565b5b50919050565b7f4e487b7100000000000000000000000000000000000000000000000000000000600052602260045260246000fd5b7f4f776e61626c653a2063616c6c6572206973206e6f7420746865206f776e6572600082015250565b620005a781620004da565b8114620005b357600080fd5b50565b612d6f80620005c66000396000f3fe608060405234801561001057600080fd5b50600436106101d95760003560e01c8063715018a611610104578063b88d4fde116100a2578063e8902b4a11610071578063e8902b4a14610544578063e985e9c514610574578063f2fde38b146105a4578063fca3b5aa146105c0576101d9565b8063b88d4fde146104be578063bead255b146104da578063d28d88521461050a578063e3c0f66b14610528576101d9565b806395d89b41116100de57806395d89b411461044a578063a22cb46514610468578063ab2bb80b14610484578063b09f1266146104a0576101d9565b8063715018a6146104185780637b35fb48146104225780638da5cb5b1461042c576101d9565b806318160ddd1161017c5780636019061b1161014b5780636019061b1461036a5780636352211e1461039a5780636605ff66146103ca57806370a08231146103e8576101d9565b806318160ddd146102f657806323b872dd1461031457806342842e0e146103305780635279ad651461034c576101d9565b806307546172116101b8578063075461721461025c578063081812fc1461027a578063095ea7b3146102aa578063129f766f146102c6576101d9565b8062e7203e146101de57806301ffc9a71461020e57806306fdde031461023e575b600080fd5b6101f860048036038101906101f3919061225c565b6105dc565b604051610205919061279a565b60405180910390f35b61022860048036038101906102239190612233565b610809565b6040516102359190612600565b60405180910390f35b610246610814565b604051610253919061261b565b60405180910390f35b6102646108a6565b60405161027191906125ae565b60405180910390f35b610294600480360381019061028f919061229d565b6108d0565b6040516102a191906125ae565b60405180910390f35b6102c460048036038101906102bf91906121ce565b610955565b005b6102e060048036038101906102db919061229d565b610a8e565b6040516102ed919061275d565b60405180910390f35b6102fe610b8c565b60405161030b919061279a565b60405180910390f35b61032e600480360381019061032991906120c3565b610b96565b005b61034a600480360381019061034591906120c3565b610ce1565b005b610354610cf1565b604051610361919061279a565b60405180910390f35b610384600480360381019061037f91906122c6565b610cfb565b604051610391919061279a565b60405180910390f35b6103b460048036038101906103af919061229d565b610e8d565b6040516103c191906125ae565b60405180910390f35b6103d2610eca565b6040516103df919061279a565b60405180910390f35b61040260048036038101906103fd9190612035565b610ed7565b60405161040f919061279a565b60405180910390f35b610420610f20565b005b61042a610fa8565b005b610434610fc2565b60405161044191906125ae565b60405180910390f35b610452610feb565b60405161045f919061261b565b60405180910390f35b610482600480360381019061047d9190612192565b61107d565b005b61049e6004803603810190610499919061229d565b6111fe565b005b6104a8611393565b6040516104b5919061261b565b60405180910390f35b6104d860048036038101906104d39190612112565b611421565b005b6104f460048036038101906104ef919061229d565b611428565b604051610501919061277f565b60405180910390f35b610512611519565b60405161051f919061261b565b60405180910390f35b610542600480360381019061053d9190612035565b6115a7565b005b61055e600480360381019061055991906121ce565b611667565b60405161056b919061279a565b60405180910390f35b61058e60048036038101906105899190612087565b611722565b60405161059b9190612600565b60405180910390f35b6105be60048036038101906105b99190612035565b6117b6565b005b6105da60048036038101906105d59190612035565b6118ae565b005b6000600160009054906101000a900473ffffffffffffffffffffffffffffffffffffffff1673ffffffffffffffffffffffffffffffffffffffff1661061f6119ce565b73ffffffffffffffffffffffffffffffffffffffff1614610675576040517f08c379a000000000000000000000000000000000000000000000000000000000815260040161066c9061273d565b60405180910390fd5b60006040518060400160405280600554815260200184815250905060048190806001815401808255809150506001900390600052602060002090600202016000909190919091506000820151816000015560208201518160010190805190602001906106e2929190611e01565b50505060016004805490506106f79190612876565b91506107016108a6565b6007600084815260200190815260200160002060006101000a81548173ffffffffffffffffffffffffffffffffffffffff021916908373ffffffffffffffffffffffffffffffffffffffff16021790555060066000815480929190610765906129ed565b9190505550600860006107766108a6565b73ffffffffffffffffffffffffffffffffffffffff1673ffffffffffffffffffffffffffffffffffffffff16815260200190815260200160002060008154809291906107c1906129ed565b91905055507f664a9f72c6c59d5e5e6796eee9c34378ce62abe9593ada5bdc0564e23a16407b60055484846040516107fb939291906127b5565b60405180910390a150919050565b600060019050919050565b6060600280546108239061298a565b80601f016020809104026020016040519081016040528092919081815260200182805461084f9061298a565b801561089c5780601f106108715761010080835404028352916020019161089c565b820191906000526020600020905b81548152906001019060200180831161087f57829003601f168201915b5050505050905090565b6000600160009054906101000a900473ffffffffffffffffffffffffffffffffffffffff16905090565b60006108db826119d6565b61091a576040517f08c379a0000000000000000000000000000000000000000000000000000000008152600401610911906126bd565b60405180910390fd5b6009600083815260200190815260200160002060009054906101000a900473ffffffffffffffffffffffffffffffffffffffff169050919050565b600073ffffffffffffffffffffffffffffffffffffffff168273ffffffffffffffffffffffffffffffffffffffff16141561098f57600080fd5b6109976119ce565b73ffffffffffffffffffffffffffffffffffffffff166109b682610e8d565b73ffffffffffffffffffffffffffffffffffffffff16146109d657600080fd5b816009600083815260200190815260200160002060006101000a81548173ffffffffffffffffffffffffffffffffffffffff021916908373ffffffffffffffffffffffffffffffffffffffff160217905550808273ffffffffffffffffffffffffffffffffffffffff16610a486119ce565b73ffffffffffffffffffffffffffffffffffffffff167f8c5be1e5ebec7d5bd14f71427d1e84f3dd0314c0f7b2291e5b200ac8c7c3b92560405160405180910390a45050565b610a96611e87565b60048281548110610ad0577f4e487b7100000000000000000000000000000000000000000000000000000000600052603260045260246000fd5b906000526020600020906002020160405180604001604052908160008201548152602001600182018054610b039061298a565b80601f0160208091040260200160405190810160405280929190818152602001828054610b2f9061298a565b8015610b7c5780601f10610b5157610100808354040283529160200191610b7c565b820191906000526020600020905b815481529060010190602001808311610b5f57829003601f168201915b5050505050815250509050919050565b6000600654905090565b600160009054906101000a900473ffffffffffffffffffffffffffffffffffffffff1673ffffffffffffffffffffffffffffffffffffffff16610bd76119ce565b73ffffffffffffffffffffffffffffffffffffffff1614610c2d576040517f08c379a0000000000000000000000000000000000000000000000000000000008152600401610c249061273d565b60405180910390fd5b610c378382611a42565b610c76576040517f08c379a0000000000000000000000000000000000000000000000000000000008152600401610c6d9061271d565b60405180910390fd5b610c81838383611ba0565b808273ffffffffffffffffffffffffffffffffffffffff168473ffffffffffffffffffffffffffffffffffffffff167fddf252ad1be2c89b69c2b068fc378daa952ba7f163c4a11628f55a4df523b3ef60405160405180910390a4505050565b610cec838383610b96565b505050565b6000600554905090565b6000610d056119ce565b73ffffffffffffffffffffffffffffffffffffffff16610d2484610e8d565b73ffffffffffffffffffffffffffffffffffffffff1614610d7a576040517f08c379a0000000000000000000000000000000000000000000000000000000008152600401610d719061265d565b60405180910390fd5b6000600b80549050905060006040518060a00160405280610d996119ce565b73ffffffffffffffffffffffffffffffffffffffff168152602001858152602001868152602001838152602001600015158152509050600b81908060018154018082558091505060019003906000526020600020906005020160009091909190915060008201518160000160006101000a81548173ffffffffffffffffffffffffffffffffffffffff021916908373ffffffffffffffffffffffffffffffffffffffff16021790555060208201518160010155604082015181600201556060820151816003015560808201518160040160006101000a81548160ff0219169083151502179055505050819250505092915050565b60006007600083815260200190815260200160002060009054906101000a900473ffffffffffffffffffffffffffffffffffffffff169050919050565b6000600b80549050905090565b6000600860008373ffffffffffffffffffffffffffffffffffffffff1673ffffffffffffffffffffffffffffffffffffffff168152602001908152602001600020549050919050565b610f286119ce565b73ffffffffffffffffffffffffffffffffffffffff16610f46610fc2565b73ffffffffffffffffffffffffffffffffffffffff1614610f9c576040517f08c379a0000000000000000000000000000000000000000000000000000000008152600401610f93906126dd565b60405180910390fd5b610fa66000611cd6565b565b60056000815480929190610fbb906129ed565b9190505550565b60008060009054906101000a900473ffffffffffffffffffffffffffffffffffffffff16905090565b606060038054610ffa9061298a565b80601f01602080910402602001604051908101604052809291908181526020018280546110269061298a565b80156110735780601f1061104857610100808354040283529160200191611073565b820191906000526020600020905b81548152906001019060200180831161105657829003601f168201915b5050505050905090565b6110856119ce565b73ffffffffffffffffffffffffffffffffffffffff168273ffffffffffffffffffffffffffffffffffffffff1614156110f3576040517f08c379a00000000000000000000000000000000000000000000000000000000081526004016110ea9061267d565b60405180910390fd5b80600a60006111006119ce565b73ffffffffffffffffffffffffffffffffffffffff1673ffffffffffffffffffffffffffffffffffffffff16815260200190815260200160002060008473ffffffffffffffffffffffffffffffffffffffff1673ffffffffffffffffffffffffffffffffffffffff16815260200190815260200160002060006101000a81548160ff0219169083151502179055508173ffffffffffffffffffffffffffffffffffffffff166111ad6119ce565b73ffffffffffffffffffffffffffffffffffffffff167f17307eab39ab6107e8899845ad3d59bd9653f200f220920489ca2b5937696c31836040516111f29190612600565b60405180910390a35050565b600061120982611428565b9050806080015115611250576040517f08c379a0000000000000000000000000000000000000000000000000000000008152600401611247906126fd565b60405180910390fd5b600c60009054906101000a900473ffffffffffffffffffffffffffffffffffffffff1673ffffffffffffffffffffffffffffffffffffffff166323b872dd6112966119ce565b836000015184602001516040518463ffffffff1660e01b81526004016112be939291906125c9565b602060405180830381600087803b1580156112d857600080fd5b505af11580156112ec573d6000803e3d6000fd5b505050506040513d601f19601f82011682018060405250810190611310919061220a565b5061132b81600001516113216119ce565b8360400151611ba0565b600181608001901515908115158152505061134582611d9a565b7ff0850855d3e060eb2ef108acf28f6981b6252b440ba3eef69142e8bb45acc95481600001516113736119ce565b8360400151604051611387939291906125c9565b60405180910390a15050565b600380546113a09061298a565b80601f01602080910402602001604051908101604052809291908181526020018280546113cc9061298a565b80156114195780601f106113ee57610100808354040283529160200191611419565b820191906000526020600020905b8154815290600101906020018083116113fc57829003601f168201915b505050505081565b5050505050565b611430611ea1565b600b828154811061146a577f4e487b7100000000000000000000000000000000000000000000000000000000600052603260045260246000fd5b90600052602060002090600502016040518060a00160405290816000820160009054906101000a900473ffffffffffffffffffffffffffffffffffffffff1673ffffffffffffffffffffffffffffffffffffffff1673ffffffffffffffffffffffffffffffffffffffff1681526020016001820154815260200160028201548152602001600382015481526020016004820160009054906101000a900460ff1615151515815250509050919050565b600280546115269061298a565b80601f01602080910402602001604051908101604052809291908181526020018280546115529061298a565b801561159f5780601f106115745761010080835404028352916020019161159f565b820191906000526020600020905b81548152906001019060200180831161158257829003601f168201915b505050505081565b6115af6119ce565b73ffffffffffffffffffffffffffffffffffffffff166115cd610fc2565b73ffffffffffffffffffffffffffffffffffffffff1614611623576040517f08c379a000000000000000000000000000000000000000000000000000000000815260040161161a906126dd565b60405180910390fd5b80600c60006101000a81548173ffffffffffffffffffffffffffffffffffffffff021916908373ffffffffffffffffffffffffffffffffffffffff16021790555050565b6000806000905060005b600654811015611716578473ffffffffffffffffffffffffffffffffffffffff166007600083815260200190815260200160002060009054906101000a900473ffffffffffffffffffffffffffffffffffffffff1673ffffffffffffffffffffffffffffffffffffffff16141561170357838214156116f457809250505061171c565b81806116ff906129ed565b9250505b808061170e906129ed565b915050611671565b50600080fd5b92915050565b6000600a60008473ffffffffffffffffffffffffffffffffffffffff1673ffffffffffffffffffffffffffffffffffffffff16815260200190815260200160002060008373ffffffffffffffffffffffffffffffffffffffff1673ffffffffffffffffffffffffffffffffffffffff16815260200190815260200160002060009054906101000a900460ff16905092915050565b6117be6119ce565b73ffffffffffffffffffffffffffffffffffffffff166117dc610fc2565b73ffffffffffffffffffffffffffffffffffffffff1614611832576040517f08c379a0000000000000000000000000000000000000000000000000000000008152600401611829906126dd565b60405180910390fd5b600073ffffffffffffffffffffffffffffffffffffffff168173ffffffffffffffffffffffffffffffffffffffff1614156118a2576040517f08c379a00000000000000000000000000000000000000000000000000000000081526004016118999061263d565b60405180910390fd5b6118ab81611cd6565b50565b6118b66119ce565b73ffffffffffffffffffffffffffffffffffffffff166118d4610fc2565b73ffffffffffffffffffffffffffffffffffffffff161461192a576040517f08c379a0000000000000000000000000000000000000000000000000000000008152600401611921906126dd565b60405180910390fd5b600081905081600160006101000a81548173ffffffffffffffffffffffffffffffffffffffff021916908373ffffffffffffffffffffffffffffffffffffffff1602179055508173ffffffffffffffffffffffffffffffffffffffff168173ffffffffffffffffffffffffffffffffffffffff167f3b0007eb941cf645526cbb3a4fdaecda9d28ce4843167d9263b536a1f1edc0f660405160405180910390a35050565b600033905090565b60008073ffffffffffffffffffffffffffffffffffffffff166007600084815260200190815260200160002060009054906101000a900473ffffffffffffffffffffffffffffffffffffffff1673ffffffffffffffffffffffffffffffffffffffff1614159050919050565b6000611a4d826119d6565b611a8c576040517f08c379a0000000000000000000000000000000000000000000000000000000008152600401611a839061269d565b60405180910390fd5b60003073ffffffffffffffffffffffffffffffffffffffff16636352211e846040518263ffffffff1660e01b8152600401611ac7919061279a565b60206040518083038186803b158015611adf57600080fd5b505afa158015611af3573d6000803e3d6000fd5b505050506040513d601f19601f82011682018060405250810190611b17919061205e565b90508073ffffffffffffffffffffffffffffffffffffffff168473ffffffffffffffffffffffffffffffffffffffff161480611b8657508373ffffffffffffffffffffffffffffffffffffffff16611b6e846108d0565b73ffffffffffffffffffffffffffffffffffffffff16145b80611b975750611b968185611722565b5b91505092915050565b600860008373ffffffffffffffffffffffffffffffffffffffff1673ffffffffffffffffffffffffffffffffffffffff1681526020019081526020016000206000815480929190611bf0906129ed565b9190505550816007600083815260200190815260200160002060006101000a81548173ffffffffffffffffffffffffffffffffffffffff021916908373ffffffffffffffffffffffffffffffffffffffff160217905550600073ffffffffffffffffffffffffffffffffffffffff168373ffffffffffffffffffffffffffffffffffffffff1614611cd157600860008473ffffffffffffffffffffffffffffffffffffffff1673ffffffffffffffffffffffffffffffffffffffff1681526020019081526020016000206000815480929190611ccb90612960565b91905055505b505050565b60008060009054906101000a900473ffffffffffffffffffffffffffffffffffffffff169050816000806101000a81548173ffffffffffffffffffffffffffffffffffffffff021916908373ffffffffffffffffffffffffffffffffffffffff1602179055508173ffffffffffffffffffffffffffffffffffffffff168173ffffffffffffffffffffffffffffffffffffffff167f8be0079c531659141344cd1fd0a4f28419497f9722a3daafe3b4186f6b6457e060405160405180910390a35050565b6001600b8281548110611dd6577f4e487b7100000000000000000000000000000000000000000000000000000000600052603260045260246000fd5b906000526020600020906005020160040160006101000a81548160ff02191690831515021790555050565b828054611e0d9061298a565b90600052602060002090601f016020900481019282611e2f5760008555611e76565b82601f10611e4857805160ff1916838001178555611e76565b82800160010185558215611e76579182015b82811115611e75578251825591602001919060010190611e5a565b5b509050611e839190611ee8565b5090565b604051806040016040528060008152602001606081525090565b6040518060a00160405280600073ffffffffffffffffffffffffffffffffffffffff1681526020016000815260200160008152602001600081526020016000151581525090565b5b80821115611f01576000816000905550600101611ee9565b5090565b6000611f18611f1384612818565b6127f3565b905082815260208101848484011115611f3057600080fd5b611f3b84828561291e565b509392505050565b600081359050611f5281612cdd565b92915050565b600081519050611f6781612cdd565b92915050565b600081359050611f7c81612cf4565b92915050565b600081519050611f9181612cf4565b92915050565b600081359050611fa681612d0b565b92915050565b60008083601f840112611fbe57600080fd5b8235905067ffffffffffffffff811115611fd757600080fd5b602083019150836001820283011115611fef57600080fd5b9250929050565b600082601f83011261200757600080fd5b8135612017848260208601611f05565b91505092915050565b60008135905061202f81612d22565b92915050565b60006020828403121561204757600080fd5b600061205584828501611f43565b91505092915050565b60006020828403121561207057600080fd5b600061207e84828501611f58565b91505092915050565b6000806040838503121561209a57600080fd5b60006120a885828601611f43565b92505060206120b985828601611f43565b9150509250929050565b6000806000606084860312156120d857600080fd5b60006120e686828701611f43565b93505060206120f786828701611f43565b925050604061210886828701612020565b9150509250925092565b60008060008060006080868803121561212a57600080fd5b600061213888828901611f43565b955050602061214988828901611f43565b945050604061215a88828901612020565b935050606086013567ffffffffffffffff81111561217757600080fd5b61218388828901611fac565b92509250509295509295909350565b600080604083850312156121a557600080fd5b60006121b385828601611f43565b92505060206121c485828601611f6d565b9150509250929050565b600080604083850312156121e157600080fd5b60006121ef85828601611f43565b925050602061220085828601612020565b9150509250929050565b60006020828403121561221c57600080fd5b600061222a84828501611f82565b91505092915050565b60006020828403121561224557600080fd5b600061225384828501611f97565b91505092915050565b60006020828403121561226e57600080fd5b600082013567ffffffffffffffff81111561228857600080fd5b61229484828501611ff6565b91505092915050565b6000602082840312156122af57600080fd5b60006122bd84828501612020565b91505092915050565b600080604083850312156122d957600080fd5b60006122e785828601612020565b92505060206122f885828601612020565b9150509250929050565b61230b816128aa565b82525050565b61231a816128aa565b82525050565b612329816128bc565b82525050565b612338816128bc565b82525050565b600061234982612849565b6123538185612854565b935061236381856020860161292d565b61236c81612ac3565b840191505092915050565b600061238282612849565b61238c8185612865565b935061239c81856020860161292d565b6123a581612ac3565b840191505092915050565b60006123bd602683612865565b91506123c882612ad4565b604082019050919050565b60006123e0601283612865565b91506123eb82612b23565b602082019050919050565b6000612403601983612865565b915061240e82612b4c565b602082019050919050565b6000612426602c83612865565b915061243182612b75565b604082019050919050565b6000612449602c83612865565b915061245482612bc4565b604082019050919050565b600061246c602083612865565b915061247782612c13565b602082019050919050565b600061248f601083612865565b915061249a82612c3c565b602082019050919050565b60006124b2601283612865565b91506124bd82612c65565b602082019050919050565b60006124d5602283612865565b91506124e082612c8e565b604082019050919050565b60006040830160008301516125036000860182612590565b506020830151848203602086015261251b828261233e565b9150508091505092915050565b60a08201600082015161253e6000850182612302565b5060208201516125516020850182612590565b5060408201516125646040850182612590565b5060608201516125776060850182612590565b50608082015161258a6080850182612320565b50505050565b61259981612914565b82525050565b6125a881612914565b82525050565b60006020820190506125c36000830184612311565b92915050565b60006060820190506125de6000830186612311565b6125eb6020830185612311565b6125f8604083018461259f565b949350505050565b6000602082019050612615600083018461232f565b92915050565b600060208201905081810360008301526126358184612377565b905092915050565b60006020820190508181036000830152612656816123b0565b9050919050565b60006020820190508181036000830152612676816123d3565b9050919050565b60006020820190508181036000830152612696816123f6565b9050919050565b600060208201905081810360008301526126b681612419565b9050919050565b600060208201905081810360008301526126d68161243c565b9050919050565b600060208201905081810360008301526126f68161245f565b9050919050565b6000602082019050818103600083015261271681612482565b9050919050565b60006020820190508181036000830152612736816124a5565b9050919050565b60006020820190508181036000830152612756816124c8565b9050919050565b6000602082019050818103600083015261277781846124eb565b905092915050565b600060a0820190506127946000830184612528565b92915050565b60006020820190506127af600083018461259f565b92915050565b60006060820190506127ca600083018661259f565b81810360208301526127dc8185612377565b90506127eb604083018461259f565b949350505050565b60006127fd61280e565b905061280982826129bc565b919050565b6000604051905090565b600067ffffffffffffffff82111561283357612832612a94565b5b61283c82612ac3565b9050602081019050919050565b600081519050919050565b600082825260208201905092915050565b600082825260208201905092915050565b600061288182612914565b915061288c83612914565b92508282101561289f5761289e612a36565b5b828203905092915050565b60006128b5826128f4565b9050919050565b60008115159050919050565b60007fffffffff0000000000000000000000000000000000000000000000000000000082169050919050565b600073ffffffffffffffffffffffffffffffffffffffff82169050919050565b6000819050919050565b82818337600083830152505050565b60005b8381101561294b578082015181840152602081019050612930565b8381111561295a576000848401525b50505050565b600061296b82612914565b9150600082141561297f5761297e612a36565b5b600182039050919050565b600060028204905060018216806129a257607f821691505b602082108114156129b6576129b5612a65565b5b50919050565b6129c582612ac3565b810181811067ffffffffffffffff821117156129e4576129e3612a94565b5b80604052505050565b60006129f882612914565b91507fffffffffffffffffffffffffffffffffffffffffffffffffffffffffffffffff821415612a2b57612a2a612a36565b5b600182019050919050565b7f4e487b7100000000000000000000000000000000000000000000000000000000600052601160045260246000fd5b7f4e487b7100000000000000000000000000000000000000000000000000000000600052602260045260246000fd5b7f4e487b7100000000000000000000000000000000000000000000000000000000600052604160045260246000fd5b6000601f19601f8301169050919050565b7f4f776e61626c653a206e6577206f776e657220697320746865207a65726f206160008201527f6464726573730000000000000000000000000000000000000000000000000000602082015250565b7f546f6b656e20756e617574686f72697365640000000000000000000000000000600082015250565b7f4552433732313a20617070726f766520746f2063616c6c657200000000000000600082015250565b7f4552433732313a206f70657261746f7220717565727920666f72206e6f6e657860008201527f697374656e7420746f6b656e0000000000000000000000000000000000000000602082015250565b7f4552433732313a20617070726f76656420717565727920666f72206e6f6e657860008201527f697374656e7420746f6b656e0000000000000000000000000000000000000000602082015250565b7f4f776e61626c653a2063616c6c6572206973206e6f7420746865206f776e6572600082015250565b7f427579206d6f6d656e744661696c656400000000000000000000000000000000600082015250565b7f55736572206e6f74206175746f72697a65640000000000000000000000000000600082015250565b7f4d696e7461626c653a2063616c6c6572206973206e6f7420746865206d696e7460008201527f6572000000000000000000000000000000000000000000000000000000000000602082015250565b612ce6816128aa565b8114612cf157600080fd5b50565b612cfd816128bc565b8114612d0857600080fd5b50565b612d14816128c8565b8114612d1f57600080fd5b50565b612d2b81612914565b8114612d3657600080fd5b5056fea2646970667358221220d1a7b72c2f5e3ea5a864bd0e4ee9bdb974a04093c22112667bd0dd8882877c3864736f6c63430008020033",
  "immutableReferences": {},
  "source": "// SPDX-License-Identifier: MIT\npragma solidity ^0.8.0;\n\nimport \"./Moments.sol\";\nimport \"./IPLToken.sol\";\n\ncontract MomentSale is IPLMoments {\n    struct Sale {\n        address seller;\n        uint256 price;\n        uint256 tokenId;\n        uint256 saleId;\n        bool saleDone;\n    }\n\n    Sale[] private sales;\n    IBEP20 IPLT;\n\n    event momentSold(address from, address to, uint256 tokenId);\n\n    constructor(address contractAddress) {\n        IPLT = IBEP20(contractAddress);\n    }\n\n    function setIPLToken(address contractAddress) public onlyOwner {\n        IPLT = IBEP20(contractAddress);\n    }\n\n    function createSale(uint256 tokenId, uint256 price)\n        public\n        returns (uint256)\n    {\n        require(ownerOf(tokenId) == _msgSender(), \"Token unauthorised\");\n\n        uint256 newSaleId = sales.length;\n\n        Sale memory newSale = Sale({\n            seller: _msgSender(),\n            price: price,\n            tokenId: tokenId,\n            saleId: newSaleId,\n            saleDone: false\n        });\n\n        sales.push(newSale);\n        return newSaleId;\n    }\n\n    function getSaleById(uint256 saleId)\n        public\n        view\n        returns (Sale memory sale)\n    {\n        sale = sales[saleId];\n    }\n\n    function buyMoment(uint256 saleId) public {\n        Sale memory saleData = getSaleById(saleId);\n        require(!saleData.saleDone, \"Buy momentFailed\");\n\n        IPLT.transferFrom(_msgSender(), saleData.seller, saleData.price);\n        _transfer(saleData.seller, _msgSender(), saleData.tokenId);\n\n        saleData.saleDone = true;\n        _endSale(saleId);\n\n        emit momentSold(saleData.seller, _msgSender(), saleData.tokenId);\n    }\n\n    function _endSale(uint256 saleId) internal {\n        sales[saleId].saleDone = true;\n    }\n\n    function totalSales() public view returns (uint256) {\n        return sales.length;\n    }\n}\n",
  "sourcePath": "/home/calibraint/Documents/ipl-token/contract/contracts/MomentSales.sol",
  "compiler": {
    "name": "solc",
    "version": "0.8.2+commit.661d1103.Emscripten.clang"
  },
  "schemaVersion": "3.4.3",
  "updatedAt": "2021-09-13T18:13:12.778Z",
  "networkType": "ethereum",
  "devdoc": {
    "kind": "dev",
    "methods": {
      "approve(address,uint256)": {
        "details": "Gives permission to `to` to transfer `tokenId` token to another account. The approval is cleared when the token is transferred. Only a single account can be approved at a time, so approving the zero address clears previous approvals. Requirements: - The caller must own the token or be an approved operator. - `tokenId` must exist. Emits an {Approval} event."
      },
      "balanceOf(address)": {
        "details": "Returns the number of tokens in ``owner``'s account."
      },
      "getApproved(uint256)": {
        "details": "Returns the account approved for `tokenId` token. Requirements: - `tokenId` must exist."
      },
      "isApprovedForAll(address,address)": {
        "details": "Returns if the `operator` is allowed to manage all of the assets of `owner`. See {setApprovalForAll}"
      },
      "owner()": {
        "details": "Returns the address of the current owner."
      },
      "ownerOf(uint256)": {
        "details": "Returns the owner of the `tokenId` token. Requirements: - `tokenId` must exist."
      },
      "renounceOwnership()": {
        "details": "Leaves the contract without owner. It will not be possible to call `onlyOwner` functions anymore. Can only be called by the current owner. NOTE: Renouncing ownership will leave the contract without an owner, thereby removing any functionality that is only available to the owner."
      },
      "safeTransferFrom(address,address,uint256,bytes)": {
        "details": "Safely transfers `tokenId` token from `from` to `to`. Requirements: - `from` cannot be the zero address. - `to` cannot be the zero address. - `tokenId` token must exist and be owned by `from`. - If the caller is not `from`, it must be approved to move this token by either {approve} or {setApprovalForAll}. - If `to` refers to a smart contract, it must implement {IERC721Receiver-onERC721Received}, which is called upon a safe transfer. Emits a {Transfer} event."
      },
      "supportsInterface(bytes4)": {
        "details": "Returns true if this contract implements the interface defined by `interfaceId`. See the corresponding https://eips.ethereum.org/EIPS/eip-165#how-interfaces-are-identified[EIP section] to learn more about how these ids are created. This function call must use less than 30 000 gas."
      },
      "transferOwnership(address)": {
        "details": "Transfers ownership of the contract to a new account (`newOwner`). Can only be called by the current owner."
      }
    },
    "version": 1
  },
  "userdoc": {
    "kind": "user",
    "methods": {},
    "version": 1
  }
}