{
  "contractName": "MomentSale",
  "abi": [
    {
      "inputs": [
        {
          "internalType": "address",
          "name": "contractAddress",
          "type": "address"
        }
      ],
      "stateMutability": "nonpayable",
      "type": "constructor"
    },
    {
      "anonymous": false,
      "inputs": [
        {
          "indexed": true,
          "internalType": "address",
          "name": "owner",
          "type": "address"
        },
        {
          "indexed": true,
          "internalType": "address",
          "name": "approved",
          "type": "address"
        },
        {
          "indexed": true,
          "internalType": "uint256",
          "name": "tokenId",
          "type": "uint256"
        }
      ],
      "name": "Approval",
      "type": "event"
    },
    {
      "anonymous": false,
      "inputs": [
        {
          "indexed": true,
          "internalType": "address",
          "name": "owner",
          "type": "address"
        },
        {
          "indexed": true,
          "internalType": "address",
          "name": "operator",
          "type": "address"
        },
        {
          "indexed": false,
          "internalType": "bool",
          "name": "approved",
          "type": "bool"
        }
      ],
      "name": "ApprovalForAll",
      "type": "event"
    },
    {
      "anonymous": false,
      "inputs": [
        {
          "indexed": true,
          "internalType": "address",
          "name": "oldMinter",
          "type": "address"
        },
        {
          "indexed": true,
          "internalType": "address",
          "name": "newMinter",
          "type": "address"
        }
      ],
      "name": "MinterChanged",
      "type": "event"
    },
    {
      "anonymous": false,
      "inputs": [
        {
          "indexed": true,
          "internalType": "address",
          "name": "previousOwner",
          "type": "address"
        },
        {
          "indexed": true,
          "internalType": "address",
          "name": "newOwner",
          "type": "address"
        }
      ],
      "name": "OwnershipTransferred",
      "type": "event"
    },
    {
      "anonymous": false,
      "inputs": [
        {
          "indexed": true,
          "internalType": "address",
          "name": "from",
          "type": "address"
        },
        {
          "indexed": true,
          "internalType": "address",
          "name": "to",
          "type": "address"
        },
        {
          "indexed": true,
          "internalType": "uint256",
          "name": "tokenId",
          "type": "uint256"
        }
      ],
      "name": "Transfer",
      "type": "event"
    },
    {
      "anonymous": false,
      "inputs": [
        {
          "indexed": false,
          "internalType": "uint256",
          "name": "seriesId",
          "type": "uint256"
        },
        {
          "indexed": false,
          "internalType": "string",
          "name": "url",
          "type": "string"
        },
        {
          "indexed": false,
          "internalType": "uint256",
          "name": "tokenId",
          "type": "uint256"
        }
      ],
      "name": "momentCreated",
      "type": "event"
    },
    {
      "anonymous": false,
      "inputs": [
        {
          "indexed": false,
          "internalType": "address",
          "name": "from",
          "type": "address"
        },
        {
          "indexed": false,
          "internalType": "address",
          "name": "to",
          "type": "address"
        },
        {
          "indexed": false,
          "internalType": "uint256",
          "name": "tokenId",
          "type": "uint256"
        }
      ],
      "name": "momentSold",
      "type": "event"
    },
    {
      "inputs": [],
      "name": "_name",
      "outputs": [
        {
          "internalType": "string",
          "name": "",
          "type": "string"
        }
      ],
      "stateMutability": "view",
      "type": "function",
      "constant": true
    },
    {
      "inputs": [],
      "name": "_symbol",
      "outputs": [
        {
          "internalType": "string",
          "name": "",
          "type": "string"
        }
      ],
      "stateMutability": "view",
      "type": "function",
      "constant": true
    },
    {
      "inputs": [
        {
          "internalType": "address",
          "name": "to",
          "type": "address"
        },
        {
          "internalType": "uint256",
          "name": "tokenId",
          "type": "uint256"
        }
      ],
      "name": "approve",
      "outputs": [],
      "stateMutability": "nonpayable",
      "type": "function"
    },
    {
      "inputs": [
        {
          "internalType": "address",
          "name": "owner",
          "type": "address"
        }
      ],
      "name": "balanceOf",
      "outputs": [
        {
          "internalType": "uint256",
          "name": "balance",
          "type": "uint256"
        }
      ],
      "stateMutability": "view",
      "type": "function",
      "constant": true
    },
    {
      "inputs": [
        {
          "internalType": "string",
          "name": "_url",
          "type": "string"
        },
        {
          "internalType": "string",
          "name": "playerName",
          "type": "string"
        }
      ],
      "name": "createMoment",
      "outputs": [],
      "stateMutability": "nonpayable",
      "type": "function"
    },
    {
      "inputs": [
        {
          "internalType": "uint256",
          "name": "tokenId",
          "type": "uint256"
        }
      ],
      "name": "getApproved",
      "outputs": [
        {
          "internalType": "address",
          "name": "approvedTo",
          "type": "address"
        }
      ],
      "stateMutability": "view",
      "type": "function",
      "constant": true
    },
    {
      "inputs": [
        {
          "internalType": "uint256",
          "name": "_tokenId",
          "type": "uint256"
        }
      ],
      "name": "getMomentById",
      "outputs": [
        {
          "components": [
            {
              "internalType": "uint256",
              "name": "seriesId",
              "type": "uint256"
            },
            {
              "internalType": "string",
              "name": "url",
              "type": "string"
            },
            {
              "internalType": "uint256",
              "name": "momentId",
              "type": "uint256"
            },
            {
              "internalType": "uint8",
              "name": "tokenType",
              "type": "uint8"
            },
            {
              "internalType": "string",
              "name": "playerName",
              "type": "string"
            }
          ],
          "internalType": "struct IPLMoments.Moment",
          "name": "",
          "type": "tuple"
        }
      ],
      "stateMutability": "view",
      "type": "function",
      "constant": true
    },
    {
      "inputs": [
        {
          "internalType": "address",
          "name": "_owner",
          "type": "address"
        },
        {
          "internalType": "uint256",
          "name": "_index",
          "type": "uint256"
        }
      ],
      "name": "getMomentsOfOwnerByIndex",
      "outputs": [
        {
          "internalType": "uint256",
          "name": "",
          "type": "uint256"
        }
      ],
      "stateMutability": "view",
      "type": "function",
      "constant": true
    },
    {
      "inputs": [],
      "name": "getSeriesId",
      "outputs": [
        {
          "internalType": "uint256",
          "name": "",
          "type": "uint256"
        }
      ],
      "stateMutability": "view",
      "type": "function",
      "constant": true
    },
    {
      "inputs": [
        {
          "internalType": "address",
          "name": "owner",
          "type": "address"
        },
        {
          "internalType": "address",
          "name": "operator",
          "type": "address"
        }
      ],
      "name": "isApprovedForAll",
      "outputs": [
        {
          "internalType": "bool",
          "name": "",
          "type": "bool"
        }
      ],
      "stateMutability": "view",
      "type": "function",
      "constant": true
    },
    {
      "inputs": [],
      "name": "minter",
      "outputs": [
        {
          "internalType": "address",
          "name": "",
          "type": "address"
        }
      ],
      "stateMutability": "view",
      "type": "function",
      "constant": true
    },
    {
      "inputs": [],
      "name": "name",
      "outputs": [
        {
          "internalType": "string",
          "name": "",
          "type": "string"
        }
      ],
      "stateMutability": "view",
      "type": "function",
      "constant": true
    },
    {
      "inputs": [],
      "name": "owner",
      "outputs": [
        {
          "internalType": "address",
          "name": "",
          "type": "address"
        }
      ],
      "stateMutability": "view",
      "type": "function",
      "constant": true
    },
    {
      "inputs": [
        {
          "internalType": "uint256",
          "name": "tokenId",
          "type": "uint256"
        }
      ],
      "name": "ownerOf",
      "outputs": [
        {
          "internalType": "address",
          "name": "owner",
          "type": "address"
        }
      ],
      "stateMutability": "view",
      "type": "function",
      "constant": true
    },
    {
      "inputs": [],
      "name": "renounceOwnership",
      "outputs": [],
      "stateMutability": "nonpayable",
      "type": "function"
    },
    {
      "inputs": [
        {
          "internalType": "address",
          "name": "_from",
          "type": "address"
        },
        {
          "internalType": "address",
          "name": "_to",
          "type": "address"
        },
        {
          "internalType": "uint256",
          "name": "_tokenId",
          "type": "uint256"
        }
      ],
      "name": "safeTransferFrom",
      "outputs": [],
      "stateMutability": "nonpayable",
      "type": "function"
    },
    {
      "inputs": [
        {
          "internalType": "address",
          "name": "from",
          "type": "address"
        },
        {
          "internalType": "address",
          "name": "to",
          "type": "address"
        },
        {
          "internalType": "uint256",
          "name": "tokenId",
          "type": "uint256"
        },
        {
          "internalType": "bytes",
          "name": "data",
          "type": "bytes"
        }
      ],
      "name": "safeTransferFrom",
      "outputs": [],
      "stateMutability": "nonpayable",
      "type": "function"
    },
    {
      "inputs": [
        {
          "internalType": "address",
          "name": "operator",
          "type": "address"
        },
        {
          "internalType": "bool",
          "name": "approved",
          "type": "bool"
        }
      ],
      "name": "setApprovalForAll",
      "outputs": [],
      "stateMutability": "nonpayable",
      "type": "function"
    },
    {
      "inputs": [
        {
          "internalType": "address",
          "name": "newMinter",
          "type": "address"
        }
      ],
      "name": "setMinter",
      "outputs": [],
      "stateMutability": "nonpayable",
      "type": "function"
    },
    {
      "inputs": [],
      "name": "startNextSeries",
      "outputs": [],
      "stateMutability": "nonpayable",
      "type": "function"
    },
    {
      "inputs": [
        {
          "internalType": "bytes4",
          "name": "interfaceId",
          "type": "bytes4"
        }
      ],
      "name": "supportsInterface",
      "outputs": [
        {
          "internalType": "bool",
          "name": "",
          "type": "bool"
        }
      ],
      "stateMutability": "pure",
      "type": "function",
      "constant": true
    },
    {
      "inputs": [],
      "name": "symbol",
      "outputs": [
        {
          "internalType": "string",
          "name": "",
          "type": "string"
        }
      ],
      "stateMutability": "view",
      "type": "function",
      "constant": true
    },
    {
      "inputs": [],
      "name": "totalSupply",
      "outputs": [
        {
          "internalType": "uint256",
          "name": "",
          "type": "uint256"
        }
      ],
      "stateMutability": "view",
      "type": "function",
      "constant": true
    },
    {
      "inputs": [
        {
          "internalType": "address",
          "name": "_from",
          "type": "address"
        },
        {
          "internalType": "address",
          "name": "_to",
          "type": "address"
        },
        {
          "internalType": "uint256",
          "name": "_tokenId",
          "type": "uint256"
        }
      ],
      "name": "transferFrom",
      "outputs": [],
      "stateMutability": "nonpayable",
      "type": "function"
    },
    {
      "inputs": [
        {
          "internalType": "address",
          "name": "newOwner",
          "type": "address"
        }
      ],
      "name": "transferOwnership",
      "outputs": [],
      "stateMutability": "nonpayable",
      "type": "function"
    },
    {
      "inputs": [
        {
          "internalType": "address",
          "name": "contractAddress",
          "type": "address"
        }
      ],
      "name": "setIPLToken",
      "outputs": [],
      "stateMutability": "nonpayable",
      "type": "function"
    },
    {
      "inputs": [
        {
          "internalType": "uint256",
          "name": "tokenId",
          "type": "uint256"
        },
        {
          "internalType": "uint256",
          "name": "price",
          "type": "uint256"
        }
      ],
      "name": "createSale",
      "outputs": [
        {
          "internalType": "uint256",
          "name": "",
          "type": "uint256"
        }
      ],
      "stateMutability": "nonpayable",
      "type": "function"
    },
    {
      "inputs": [
        {
          "internalType": "uint256",
          "name": "saleId",
          "type": "uint256"
        }
      ],
      "name": "getSaleById",
      "outputs": [
        {
          "components": [
            {
              "internalType": "address",
              "name": "seller",
              "type": "address"
            },
            {
              "internalType": "uint256",
              "name": "price",
              "type": "uint256"
            },
            {
              "internalType": "uint256",
              "name": "tokenId",
              "type": "uint256"
            },
            {
              "internalType": "uint256",
              "name": "saleId",
              "type": "uint256"
            },
            {
              "internalType": "bool",
              "name": "saleDone",
              "type": "bool"
            }
          ],
          "internalType": "struct MomentSale.Sale",
          "name": "sale",
          "type": "tuple"
        }
      ],
      "stateMutability": "view",
      "type": "function",
      "constant": true
    },
    {
      "inputs": [
        {
          "internalType": "uint256",
          "name": "saleId",
          "type": "uint256"
        }
      ],
      "name": "buyMoment",
      "outputs": [],
      "stateMutability": "nonpayable",
      "type": "function"
    },
    {
      "inputs": [
        {
          "internalType": "uint256",
          "name": "saleId",
          "type": "uint256"
        }
      ],
      "name": "endSale",
      "outputs": [],
      "stateMutability": "nonpayable",
      "type": "function"
    },
    {
      "inputs": [],
      "name": "totalSales",
      "outputs": [
        {
          "internalType": "uint256",
          "name": "",
          "type": "uint256"
        }
      ],
      "stateMutability": "view",
      "type": "function",
      "constant": true
    }
  ],
  "bytecode": "0x60806040526040518060400160405280600a81526020017f49504c4d6f6d656e74730000000000000000000000000000000000000000000081525060029080519060200190620000519291906200038d565b506040518060400160405280600481526020017f49504c4d00000000000000000000000000000000000000000000000000000000815250600390805190602001906200009f9291906200038d565b5060006005556000600655348015620000b757600080fd5b50604051620039bf380380620039bf8339818101604052810190620000dd919062000454565b620000fd620000f16200016560201b60201c565b6200016d60201b60201c565b6200011d620001116200016560201b60201c565b6200023160201b60201c565b80600d60006101000a81548173ffffffffffffffffffffffffffffffffffffffff021916908373ffffffffffffffffffffffffffffffffffffffff16021790555050620005b6565b600033905090565b60008060009054906101000a900473ffffffffffffffffffffffffffffffffffffffff169050816000806101000a81548173ffffffffffffffffffffffffffffffffffffffff021916908373ffffffffffffffffffffffffffffffffffffffff1602179055508173ffffffffffffffffffffffffffffffffffffffff168173ffffffffffffffffffffffffffffffffffffffff167f8be0079c531659141344cd1fd0a4f28419497f9722a3daafe3b4186f6b6457e060405160405180910390a35050565b620002416200016560201b60201c565b73ffffffffffffffffffffffffffffffffffffffff16620002676200036460201b60201c565b73ffffffffffffffffffffffffffffffffffffffff1614620002c0576040517f08c379a0000000000000000000000000000000000000000000000000000000008152600401620002b790620004a7565b60405180910390fd5b600081905081600160006101000a81548173ffffffffffffffffffffffffffffffffffffffff021916908373ffffffffffffffffffffffffffffffffffffffff1602179055508173ffffffffffffffffffffffffffffffffffffffff168173ffffffffffffffffffffffffffffffffffffffff167f3b0007eb941cf645526cbb3a4fdaecda9d28ce4843167d9263b536a1f1edc0f660405160405180910390a35050565b60008060009054906101000a900473ffffffffffffffffffffffffffffffffffffffff16905090565b8280546200039b906200050e565b90600052602060002090601f016020900481019282620003bf57600085556200040b565b82601f10620003da57805160ff19168380011785556200040b565b828001600101855582156200040b579182015b828111156200040a578251825591602001919060010190620003ed565b5b5090506200041a91906200041e565b5090565b5b80821115620004395760008160009055506001016200041f565b5090565b6000815190506200044e816200059c565b92915050565b6000602082840312156200046757600080fd5b600062000477848285016200043d565b91505092915050565b60006200048f602083620004c9565b91506200049c8262000573565b602082019050919050565b60006020820190508181036000830152620004c28162000480565b9050919050565b600082825260208201905092915050565b6000620004e782620004ee565b9050919050565b600073ffffffffffffffffffffffffffffffffffffffff82169050919050565b600060028204905060018216806200052757607f821691505b602082108114156200053e576200053d62000544565b5b50919050565b7f4e487b7100000000000000000000000000000000000000000000000000000000600052602260045260246000fd5b7f4f776e61626c653a2063616c6c6572206973206e6f7420746865206f776e6572600082015250565b620005a781620004da565b8114620005b357600080fd5b50565b6133f980620005c66000396000f3fe608060405234801561001057600080fd5b50600436106101e55760003560e01c806370a082311161010f578063b88d4fde116100a2578063e8902b4a11610071578063e8902b4a14610558578063e985e9c514610588578063f2fde38b146105b8578063fca3b5aa146105d4576101e5565b8063b88d4fde146104d2578063bead255b146104ee578063d28d88521461051e578063e3c0f66b1461053c576101e5565b806395d89b41116100de57806395d89b411461045e578063a22cb4651461047c578063ab2bb80b14610498578063b09f1266146104b4576101e5565b806370a08231146103fc578063715018a61461042c5780637b35fb48146104365780638da5cb5b14610440576101e5565b806318160ddd1161018757806353c3a0ba1161015657806353c3a0ba146103625780636019061b1461037e5780636352211e146103ae5780636605ff66146103de576101e5565b806318160ddd146102ee57806323b872dd1461030c57806342842e0e146103285780635279ad6514610344576101e5565b806307546172116101c35780630754617214610254578063081812fc14610272578063095ea7b3146102a2578063129f766f146102be576101e5565b806301ffc9a7146101ea57806304d1a8461461021a57806306fdde0314610236575b600080fd5b61020460048036038101906101ff91906126ab565b6105f0565b6040516102119190612b6a565b60405180910390f35b610234600480360381019061022f9190612740565b6105fb565b005b61023e61076f565b60405161024b9190612b85565b60405180910390f35b61025c610801565b6040516102699190612b18565b60405180910390f35b61028c60048036038101906102879190612740565b61082b565b6040516102999190612b18565b60405180910390f35b6102bc60048036038101906102b79190612646565b6108b0565b005b6102d860048036038101906102d39190612740565b6109e9565b6040516102e59190612d27565b60405180910390f35b6102f6610ba0565b6040516103039190612d64565b60405180910390f35b6103266004803603810190610321919061253b565b610baa565b005b610342600480360381019061033d919061253b565b610cf5565b005b61034c610d05565b6040516103599190612d64565b60405180910390f35b61037c600480360381019061037791906126d4565b610d0f565b005b61039860048036038101906103939190612769565b610f9c565b6040516103a59190612d64565b60405180910390f35b6103c860048036038101906103c39190612740565b611177565b6040516103d59190612b18565b60405180910390f35b6103e66111b4565b6040516103f39190612d64565b60405180910390f35b610416600480360381019061041191906124ad565b6111c1565b6040516104239190612d64565b60405180910390f35b61043461120a565b005b61043e611292565b005b6104486112ac565b6040516104559190612b18565b60405180910390f35b6104666112d5565b6040516104739190612b85565b60405180910390f35b6104966004803603810190610491919061260a565b611367565b005b6104b260048036038101906104ad9190612740565b6114e8565b005b6104bc6116ff565b6040516104c99190612b85565b60405180910390f35b6104ec60048036038101906104e7919061258a565b61178d565b005b61050860048036038101906105039190612740565b611794565b6040516105159190612d49565b60405180910390f35b610526611885565b6040516105339190612b85565b60405180910390f35b610556600480360381019061055191906124ad565b611913565b005b610572600480360381019061056d9190612646565b6119d3565b60405161057f9190612d64565b60405180910390f35b6105a2600480360381019061059d91906124ff565b611a8e565b6040516105af9190612b6a565b60405180910390f35b6105d260048036038101906105cd91906124ad565b611b22565b005b6105ee60048036038101906105e991906124ad565b611c1a565b005b600060019050919050565b6000600c8281548110610637577f4e487b7100000000000000000000000000000000000000000000000000000000600052603260045260246000fd5b90600052602060002090600502016040518060a00160405290816000820160009054906101000a900473ffffffffffffffffffffffffffffffffffffffff1673ffffffffffffffffffffffffffffffffffffffff1673ffffffffffffffffffffffffffffffffffffffff1681526020016001820154815260200160028201548152602001600382015481526020016004820160009054906101000a900460ff16151515158152505090506106e9611d3a565b73ffffffffffffffffffffffffffffffffffffffff1661070c8260400151611177565b73ffffffffffffffffffffffffffffffffffffffff1614610762576040517f08c379a000000000000000000000000000000000000000000000000000000000815260040161075990612c47565b60405180910390fd5b61076b82611d42565b5050565b60606002805461077e90612f73565b80601f01602080910402602001604051908101604052809291908181526020018280546107aa90612f73565b80156107f75780601f106107cc576101008083540402835291602001916107f7565b820191906000526020600020905b8154815290600101906020018083116107da57829003601f168201915b5050505050905090565b6000600160009054906101000a900473ffffffffffffffffffffffffffffffffffffffff16905090565b600061083682611da9565b610875576040517f08c379a000000000000000000000000000000000000000000000000000000000815260040161086c90612c67565b60405180910390fd5b6009600083815260200190815260200160002060009054906101000a900473ffffffffffffffffffffffffffffffffffffffff169050919050565b600073ffffffffffffffffffffffffffffffffffffffff168273ffffffffffffffffffffffffffffffffffffffff1614156108ea57600080fd5b6108f2611d3a565b73ffffffffffffffffffffffffffffffffffffffff1661091182611177565b73ffffffffffffffffffffffffffffffffffffffff161461093157600080fd5b816009600083815260200190815260200160002060006101000a81548173ffffffffffffffffffffffffffffffffffffffff021916908373ffffffffffffffffffffffffffffffffffffffff160217905550808273ffffffffffffffffffffffffffffffffffffffff166109a3611d3a565b73ffffffffffffffffffffffffffffffffffffffff167f8c5be1e5ebec7d5bd14f71427d1e84f3dd0314c0f7b2291e5b200ac8c7c3b92560405160405180910390a45050565b6109f1612261565b60048281548110610a2b577f4e487b7100000000000000000000000000000000000000000000000000000000600052603260045260246000fd5b90600052602060002090600502016040518060a001604052908160008201548152602001600182018054610a5e90612f73565b80601f0160208091040260200160405190810160405280929190818152602001828054610a8a90612f73565b8015610ad75780601f10610aac57610100808354040283529160200191610ad7565b820191906000526020600020905b815481529060010190602001808311610aba57829003601f168201915b50505050508152602001600282015481526020016003820160009054906101000a900460ff1660ff1660ff168152602001600482018054610b1790612f73565b80601f0160208091040260200160405190810160405280929190818152602001828054610b4390612f73565b8015610b905780601f10610b6557610100808354040283529160200191610b90565b820191906000526020600020905b815481529060010190602001808311610b7357829003601f168201915b5050505050815250509050919050565b6000600654905090565b600160009054906101000a900473ffffffffffffffffffffffffffffffffffffffff1673ffffffffffffffffffffffffffffffffffffffff16610beb611d3a565b73ffffffffffffffffffffffffffffffffffffffff1614610c41576040517f08c379a0000000000000000000000000000000000000000000000000000000008152600401610c3890612ce7565b60405180910390fd5b610c4b8382611e15565b610c8a576040517f08c379a0000000000000000000000000000000000000000000000000000000008152600401610c8190612cc7565b60405180910390fd5b610c95838383611f73565b808273ffffffffffffffffffffffffffffffffffffffff168473ffffffffffffffffffffffffffffffffffffffff167fddf252ad1be2c89b69c2b068fc378daa952ba7f163c4a11628f55a4df523b3ef60405160405180910390a4505050565b610d00838383610baa565b505050565b6000600554905090565b600160009054906101000a900473ffffffffffffffffffffffffffffffffffffffff1673ffffffffffffffffffffffffffffffffffffffff16610d50611d3a565b73ffffffffffffffffffffffffffffffffffffffff1614610da6576040517f08c379a0000000000000000000000000000000000000000000000000000000008152600401610d9d90612ce7565b60405180910390fd5b60006040518060a001604052806005548152602001848152602001600a8152602001600960ff1681526020018381525090506004819080600181540180825580915050600190039060005260206000209060050201600090919091909150600082015181600001556020820151816001019080519060200190610e2a929190612293565b506040820151816002015560608201518160030160006101000a81548160ff021916908360ff1602179055506080820151816004019080519060200190610e72929190612293565b50505060006001600480549050610e899190612e40565b9050610e93610801565b6007600083815260200190815260200160002060006101000a81548173ffffffffffffffffffffffffffffffffffffffff021916908373ffffffffffffffffffffffffffffffffffffffff16021790555060066000815480929190610ef790612fd6565b919050555060086000610f08610801565b73ffffffffffffffffffffffffffffffffffffffff1673ffffffffffffffffffffffffffffffffffffffff1681526020019081526020016000206000815480929190610f5390612fd6565b91905055507f664a9f72c6c59d5e5e6796eee9c34378ce62abe9593ada5bdc0564e23a16407b60055485600a604051610f8e93929190612d7f565b60405180910390a150505050565b6000610fa6611d3a565b73ffffffffffffffffffffffffffffffffffffffff16610fc584611177565b73ffffffffffffffffffffffffffffffffffffffff161461101b576040517f08c379a000000000000000000000000000000000000000000000000000000000815260040161101290612bc7565b60405180910390fd5b611024836120a9565b15611064576040517f08c379a000000000000000000000000000000000000000000000000000000000815260040161105b90612c87565b60405180910390fd5b6000600c80549050905060006040518060a00160405280611083611d3a565b73ffffffffffffffffffffffffffffffffffffffff168152602001858152602001868152602001838152602001600015158152509050600c81908060018154018082558091505060019003906000526020600020906005020160009091909190915060008201518160000160006101000a81548173ffffffffffffffffffffffffffffffffffffffff021916908373ffffffffffffffffffffffffffffffffffffffff16021790555060208201518160010155604082015181600201556060820151816003015560808201518160040160006101000a81548160ff0219169083151502179055505050819250505092915050565b60006007600083815260200190815260200160002060009054906101000a900473ffffffffffffffffffffffffffffffffffffffff169050919050565b6000600c80549050905090565b6000600860008373ffffffffffffffffffffffffffffffffffffffff1673ffffffffffffffffffffffffffffffffffffffff168152602001908152602001600020549050919050565b611212611d3a565b73ffffffffffffffffffffffffffffffffffffffff166112306112ac565b73ffffffffffffffffffffffffffffffffffffffff1614611286576040517f08c379a000000000000000000000000000000000000000000000000000000000815260040161127d90612ca7565b60405180910390fd5b611290600061219d565b565b600560008154809291906112a590612fd6565b9190505550565b60008060009054906101000a900473ffffffffffffffffffffffffffffffffffffffff16905090565b6060600380546112e490612f73565b80601f016020809104026020016040519081016040528092919081815260200182805461131090612f73565b801561135d5780601f106113325761010080835404028352916020019161135d565b820191906000526020600020905b81548152906001019060200180831161134057829003601f168201915b5050505050905090565b61136f611d3a565b73ffffffffffffffffffffffffffffffffffffffff168273ffffffffffffffffffffffffffffffffffffffff1614156113dd576040517f08c379a00000000000000000000000000000000000000000000000000000000081526004016113d490612be7565b60405180910390fd5b80600a60006113ea611d3a565b73ffffffffffffffffffffffffffffffffffffffff1673ffffffffffffffffffffffffffffffffffffffff16815260200190815260200160002060008473ffffffffffffffffffffffffffffffffffffffff1673ffffffffffffffffffffffffffffffffffffffff16815260200190815260200160002060006101000a81548160ff0219169083151502179055508173ffffffffffffffffffffffffffffffffffffffff16611497611d3a565b73ffffffffffffffffffffffffffffffffffffffff167f17307eab39ab6107e8899845ad3d59bd9653f200f220920489ca2b5937696c31836040516114dc9190612b6a565b60405180910390a35050565b60006114f382611794565b90506114fd611d3a565b73ffffffffffffffffffffffffffffffffffffffff166115208260400151611177565b73ffffffffffffffffffffffffffffffffffffffff161415611577576040517f08c379a000000000000000000000000000000000000000000000000000000000815260040161156e90612c07565b60405180910390fd5b8060800151156115bc576040517f08c379a00000000000000000000000000000000000000000000000000000000081526004016115b390612d07565b60405180910390fd5b600d60009054906101000a900473ffffffffffffffffffffffffffffffffffffffff1673ffffffffffffffffffffffffffffffffffffffff166323b872dd611602611d3a565b836000015184602001516040518463ffffffff1660e01b815260040161162a93929190612b33565b602060405180830381600087803b15801561164457600080fd5b505af1158015611658573d6000803e3d6000fd5b505050506040513d601f19601f8201168201806040525081019061167c9190612682565b50611697816000015161168d611d3a565b8360400151611f73565b60018160800190151590811515815250506116b182611d42565b7ff0850855d3e060eb2ef108acf28f6981b6252b440ba3eef69142e8bb45acc95481600001516116df611d3a565b83604001516040516116f393929190612b33565b60405180910390a15050565b6003805461170c90612f73565b80601f016020809104026020016040519081016040528092919081815260200182805461173890612f73565b80156117855780601f1061175a57610100808354040283529160200191611785565b820191906000526020600020905b81548152906001019060200180831161176857829003601f168201915b505050505081565b5050505050565b61179c612319565b600c82815481106117d6577f4e487b7100000000000000000000000000000000000000000000000000000000600052603260045260246000fd5b90600052602060002090600502016040518060a00160405290816000820160009054906101000a900473ffffffffffffffffffffffffffffffffffffffff1673ffffffffffffffffffffffffffffffffffffffff1673ffffffffffffffffffffffffffffffffffffffff1681526020016001820154815260200160028201548152602001600382015481526020016004820160009054906101000a900460ff1615151515815250509050919050565b6002805461189290612f73565b80601f01602080910402602001604051908101604052809291908181526020018280546118be90612f73565b801561190b5780601f106118e05761010080835404028352916020019161190b565b820191906000526020600020905b8154815290600101906020018083116118ee57829003601f168201915b505050505081565b61191b611d3a565b73ffffffffffffffffffffffffffffffffffffffff166119396112ac565b73ffffffffffffffffffffffffffffffffffffffff161461198f576040517f08c379a000000000000000000000000000000000000000000000000000000000815260040161198690612ca7565b60405180910390fd5b80600d60006101000a81548173ffffffffffffffffffffffffffffffffffffffff021916908373ffffffffffffffffffffffffffffffffffffffff16021790555050565b6000806000905060005b600654811015611a82578473ffffffffffffffffffffffffffffffffffffffff166007600083815260200190815260200160002060009054906101000a900473ffffffffffffffffffffffffffffffffffffffff1673ffffffffffffffffffffffffffffffffffffffff161415611a6f5783821415611a60578092505050611a88565b8180611a6b90612fd6565b9250505b8080611a7a90612fd6565b9150506119dd565b50600080fd5b92915050565b6000600a60008473ffffffffffffffffffffffffffffffffffffffff1673ffffffffffffffffffffffffffffffffffffffff16815260200190815260200160002060008373ffffffffffffffffffffffffffffffffffffffff1673ffffffffffffffffffffffffffffffffffffffff16815260200190815260200160002060009054906101000a900460ff16905092915050565b611b2a611d3a565b73ffffffffffffffffffffffffffffffffffffffff16611b486112ac565b73ffffffffffffffffffffffffffffffffffffffff1614611b9e576040517f08c379a0000000000000000000000000000000000000000000000000000000008152600401611b9590612ca7565b60405180910390fd5b600073ffffffffffffffffffffffffffffffffffffffff168173ffffffffffffffffffffffffffffffffffffffff161415611c0e576040517f08c379a0000000000000000000000000000000000000000000000000000000008152600401611c0590612ba7565b60405180910390fd5b611c178161219d565b50565b611c22611d3a565b73ffffffffffffffffffffffffffffffffffffffff16611c406112ac565b73ffffffffffffffffffffffffffffffffffffffff1614611c96576040517f08c379a0000000000000000000000000000000000000000000000000000000008152600401611c8d90612ca7565b60405180910390fd5b600081905081600160006101000a81548173ffffffffffffffffffffffffffffffffffffffff021916908373ffffffffffffffffffffffffffffffffffffffff1602179055508173ffffffffffffffffffffffffffffffffffffffff168173ffffffffffffffffffffffffffffffffffffffff167f3b0007eb941cf645526cbb3a4fdaecda9d28ce4843167d9263b536a1f1edc0f660405160405180910390a35050565b600033905090565b6001600c8281548110611d7e577f4e487b7100000000000000000000000000000000000000000000000000000000600052603260045260246000fd5b906000526020600020906005020160040160006101000a81548160ff02191690831515021790555050565b60008073ffffffffffffffffffffffffffffffffffffffff166007600084815260200190815260200160002060009054906101000a900473ffffffffffffffffffffffffffffffffffffffff1673ffffffffffffffffffffffffffffffffffffffff1614159050919050565b6000611e2082611da9565b611e5f576040517f08c379a0000000000000000000000000000000000000000000000000000000008152600401611e5690612c27565b60405180910390fd5b60003073ffffffffffffffffffffffffffffffffffffffff16636352211e846040518263ffffffff1660e01b8152600401611e9a9190612d64565b60206040518083038186803b158015611eb257600080fd5b505afa158015611ec6573d6000803e3d6000fd5b505050506040513d601f19601f82011682018060405250810190611eea91906124d6565b90508073ffffffffffffffffffffffffffffffffffffffff168473ffffffffffffffffffffffffffffffffffffffff161480611f5957508373ffffffffffffffffffffffffffffffffffffffff16611f418461082b565b73ffffffffffffffffffffffffffffffffffffffff16145b80611f6a5750611f698185611a8e565b5b91505092915050565b600860008373ffffffffffffffffffffffffffffffffffffffff1673ffffffffffffffffffffffffffffffffffffffff1681526020019081526020016000206000815480929190611fc390612fd6565b9190505550816007600083815260200190815260200160002060006101000a81548173ffffffffffffffffffffffffffffffffffffffff021916908373ffffffffffffffffffffffffffffffffffffffff160217905550600073ffffffffffffffffffffffffffffffffffffffff168373ffffffffffffffffffffffffffffffffffffffff16146120a457600860008473ffffffffffffffffffffffffffffffffffffffff1673ffffffffffffffffffffffffffffffffffffffff168152602001908152602001600020600081548092919061209e90612f49565b91905055505b505050565b600080600090505b6120b96111b4565b8110156121925782600c82815481106120fb577f4e487b7100000000000000000000000000000000000000000000000000000000600052603260045260246000fd5b9060005260206000209060050201600201541480156121705750600c818154811061214f577f4e487b7100000000000000000000000000000000000000000000000000000000600052603260045260246000fd5b906000526020600020906005020160040160009054906101000a900460ff16155b1561217f576001915050612198565b808061218a90612fd6565b9150506120b1565b50600090505b919050565b60008060009054906101000a900473ffffffffffffffffffffffffffffffffffffffff169050816000806101000a81548173ffffffffffffffffffffffffffffffffffffffff021916908373ffffffffffffffffffffffffffffffffffffffff1602179055508173ffffffffffffffffffffffffffffffffffffffff168173ffffffffffffffffffffffffffffffffffffffff167f8be0079c531659141344cd1fd0a4f28419497f9722a3daafe3b4186f6b6457e060405160405180910390a35050565b6040518060a00160405280600081526020016060815260200160008152602001600060ff168152602001606081525090565b82805461229f90612f73565b90600052602060002090601f0160209004810192826122c15760008555612308565b82601f106122da57805160ff1916838001178555612308565b82800160010185558215612308579182015b828111156123075782518255916020019190600101906122ec565b5b5090506123159190612360565b5090565b6040518060a00160405280600073ffffffffffffffffffffffffffffffffffffffff1681526020016000815260200160008152602001600081526020016000151581525090565b5b80821115612379576000816000905550600101612361565b5090565b600061239061238b84612de2565b612dbd565b9050828152602081018484840111156123a857600080fd5b6123b3848285612f07565b509392505050565b6000813590506123ca81613367565b92915050565b6000815190506123df81613367565b92915050565b6000813590506123f48161337e565b92915050565b6000815190506124098161337e565b92915050565b60008135905061241e81613395565b92915050565b60008083601f84011261243657600080fd5b8235905067ffffffffffffffff81111561244f57600080fd5b60208301915083600182028301111561246757600080fd5b9250929050565b600082601f83011261247f57600080fd5b813561248f84826020860161237d565b91505092915050565b6000813590506124a7816133ac565b92915050565b6000602082840312156124bf57600080fd5b60006124cd848285016123bb565b91505092915050565b6000602082840312156124e857600080fd5b60006124f6848285016123d0565b91505092915050565b6000806040838503121561251257600080fd5b6000612520858286016123bb565b9250506020612531858286016123bb565b9150509250929050565b60008060006060848603121561255057600080fd5b600061255e868287016123bb565b935050602061256f868287016123bb565b925050604061258086828701612498565b9150509250925092565b6000806000806000608086880312156125a257600080fd5b60006125b0888289016123bb565b95505060206125c1888289016123bb565b94505060406125d288828901612498565b935050606086013567ffffffffffffffff8111156125ef57600080fd5b6125fb88828901612424565b92509250509295509295909350565b6000806040838503121561261d57600080fd5b600061262b858286016123bb565b925050602061263c858286016123e5565b9150509250929050565b6000806040838503121561265957600080fd5b6000612667858286016123bb565b925050602061267885828601612498565b9150509250929050565b60006020828403121561269457600080fd5b60006126a2848285016123fa565b91505092915050565b6000602082840312156126bd57600080fd5b60006126cb8482850161240f565b91505092915050565b600080604083850312156126e757600080fd5b600083013567ffffffffffffffff81111561270157600080fd5b61270d8582860161246e565b925050602083013567ffffffffffffffff81111561272a57600080fd5b6127368582860161246e565b9150509250929050565b60006020828403121561275257600080fd5b600061276084828501612498565b91505092915050565b6000806040838503121561277c57600080fd5b600061278a85828601612498565b925050602061279b85828601612498565b9150509250929050565b6127ae81612e74565b82525050565b6127bd81612e74565b82525050565b6127cc81612e86565b82525050565b6127db81612e86565b82525050565b6127ea81612ef5565b82525050565b60006127fb82612e13565b6128058185612e1e565b9350612815818560208601612f16565b61281e816130ac565b840191505092915050565b600061283482612e13565b61283e8185612e2f565b935061284e818560208601612f16565b612857816130ac565b840191505092915050565b600061286f602683612e2f565b915061287a826130bd565b604082019050919050565b6000612892601283612e2f565b915061289d8261310c565b602082019050919050565b60006128b5601983612e2f565b91506128c082613135565b602082019050919050565b60006128d8601883612e2f565b91506128e38261315e565b602082019050919050565b60006128fb602c83612e2f565b915061290682613187565b604082019050919050565b600061291e603283612e2f565b9150612929826131d6565b604082019050919050565b6000612941602c83612e2f565b915061294c82613225565b604082019050919050565b6000612964601983612e2f565b915061296f82613274565b602082019050919050565b6000612987602083612e2f565b91506129928261329d565b602082019050919050565b60006129aa601283612e2f565b91506129b5826132c6565b602082019050919050565b60006129cd602283612e2f565b91506129d8826132ef565b604082019050919050565b60006129f0601183612e2f565b91506129fb8261333e565b602082019050919050565b600060a083016000830151612a1e6000860182612aeb565b5060208301518482036020860152612a3682826127f0565b9150506040830151612a4b6040860182612aeb565b506060830151612a5e6060860182612b09565b5060808301518482036080860152612a7682826127f0565b9150508091505092915050565b60a082016000820151612a9960008501826127a5565b506020820151612aac6020850182612aeb565b506040820151612abf6040850182612aeb565b506060820151612ad26060850182612aeb565b506080820151612ae560808501826127c3565b50505050565b612af481612ede565b82525050565b612b0381612ede565b82525050565b612b1281612ee8565b82525050565b6000602082019050612b2d60008301846127b4565b92915050565b6000606082019050612b4860008301866127b4565b612b5560208301856127b4565b612b626040830184612afa565b949350505050565b6000602082019050612b7f60008301846127d2565b92915050565b60006020820190508181036000830152612b9f8184612829565b905092915050565b60006020820190508181036000830152612bc081612862565b9050919050565b60006020820190508181036000830152612be081612885565b9050919050565b60006020820190508181036000830152612c00816128a8565b9050919050565b60006020820190508181036000830152612c20816128cb565b9050919050565b60006020820190508181036000830152612c40816128ee565b9050919050565b60006020820190508181036000830152612c6081612911565b9050919050565b60006020820190508181036000830152612c8081612934565b9050919050565b60006020820190508181036000830152612ca081612957565b9050919050565b60006020820190508181036000830152612cc08161297a565b9050919050565b60006020820190508181036000830152612ce08161299d565b9050919050565b60006020820190508181036000830152612d00816129c0565b9050919050565b60006020820190508181036000830152612d20816129e3565b9050919050565b60006020820190508181036000830152612d418184612a06565b905092915050565b600060a082019050612d5e6000830184612a83565b92915050565b6000602082019050612d796000830184612afa565b92915050565b6000606082019050612d946000830186612afa565b8181036020830152612da68185612829565b9050612db560408301846127e1565b949350505050565b6000612dc7612dd8565b9050612dd38282612fa5565b919050565b6000604051905090565b600067ffffffffffffffff821115612dfd57612dfc61307d565b5b612e06826130ac565b9050602081019050919050565b600081519050919050565b600082825260208201905092915050565b600082825260208201905092915050565b6000612e4b82612ede565b9150612e5683612ede565b925082821015612e6957612e6861301f565b5b828203905092915050565b6000612e7f82612ebe565b9050919050565b60008115159050919050565b60007fffffffff0000000000000000000000000000000000000000000000000000000082169050919050565b600073ffffffffffffffffffffffffffffffffffffffff82169050919050565b6000819050919050565b600060ff82169050919050565b6000612f0082612ede565b9050919050565b82818337600083830152505050565b60005b83811015612f34578082015181840152602081019050612f19565b83811115612f43576000848401525b50505050565b6000612f5482612ede565b91506000821415612f6857612f6761301f565b5b600182039050919050565b60006002820490506001821680612f8b57607f821691505b60208210811415612f9f57612f9e61304e565b5b50919050565b612fae826130ac565b810181811067ffffffffffffffff82111715612fcd57612fcc61307d565b5b80604052505050565b6000612fe182612ede565b91507fffffffffffffffffffffffffffffffffffffffffffffffffffffffffffffffff8214156130145761301361301f565b5b600182019050919050565b7f4e487b7100000000000000000000000000000000000000000000000000000000600052601160045260246000fd5b7f4e487b7100000000000000000000000000000000000000000000000000000000600052602260045260246000fd5b7f4e487b7100000000000000000000000000000000000000000000000000000000600052604160045260246000fd5b6000601f19601f8301169050919050565b7f4f776e61626c653a206e6577206f776e657220697320746865207a65726f206160008201527f6464726573730000000000000000000000000000000000000000000000000000602082015250565b7f546f6b656e20756e617574686f72697365640000000000000000000000000000600082015250565b7f4552433732313a20617070726f766520746f2063616c6c657200000000000000600082015250565b7f4f776e65722063616e206e6f7420627579206d6f6d656e740000000000000000600082015250565b7f4552433732313a206f70657261746f7220717565727920666f72206e6f6e657860008201527f697374656e7420746f6b656e0000000000000000000000000000000000000000602082015250565b7f556e617574686f72697a656420616374696f6e3a20546f6b656e206f776e657260008201527f2063616e206f6e6c7920656e642073616c650000000000000000000000000000602082015250565b7f4552433732313a20617070726f76656420717565727920666f72206e6f6e657860008201527f697374656e7420746f6b656e0000000000000000000000000000000000000000602082015250565b7f4d6f6d656e7420697320616c726561647920696e2073616c6500000000000000600082015250565b7f4f776e61626c653a2063616c6c6572206973206e6f7420746865206f776e6572600082015250565b7f55736572206e6f74206175746f72697a65640000000000000000000000000000600082015250565b7f4d696e7461626c653a2063616c6c6572206973206e6f7420746865206d696e7460008201527f6572000000000000000000000000000000000000000000000000000000000000602082015250565b7f427579206d6f6d656e74204661696c6564000000000000000000000000000000600082015250565b61337081612e74565b811461337b57600080fd5b50565b61338781612e86565b811461339257600080fd5b50565b61339e81612e92565b81146133a957600080fd5b50565b6133b581612ede565b81146133c057600080fd5b5056fea2646970667358221220dacad1b35c083a21613963a33bda92460580bcd2b28f71a2d61a9ad8fef5846864736f6c63430008020033",
  "immutableReferences": {},
  "source": "// SPDX-License-Identifier: MIT\npragma solidity ^0.8.0;\n\nimport \"./Moments.sol\";\nimport \"./IPLToken.sol\";\n\ncontract MomentSale is IPLMoments {\n    struct Sale {\n        address seller;\n        uint256 price;\n        uint256 tokenId;\n        uint256 saleId;\n        bool saleDone;\n    }\n\n    Sale[] private sales;\n    IBEP20 IPLT;\n\n    event momentSold(address from, address to, uint256 tokenId);\n\n    constructor(address contractAddress) {\n        IPLT = IBEP20(contractAddress);\n    }\n\n    function setIPLToken(address contractAddress) public onlyOwner {\n        IPLT = IBEP20(contractAddress);\n    }\n\n    function createSale(uint256 tokenId, uint256 price)\n        public\n        returns (uint256)\n    {\n        require(ownerOf(tokenId) == _msgSender(), \"Token unauthorised\");\n        require(!checkSaleInProgressOf(tokenId), \"Moment is already in sale\");\n\n        uint256 newSaleId = sales.length;\n\n        Sale memory newSale = Sale({\n            seller: _msgSender(),\n            price: price,\n            tokenId: tokenId,\n            saleId: newSaleId,\n            saleDone: false\n        });\n\n        sales.push(newSale);\n        return newSaleId;\n    }\n\n    function getSaleById(uint256 saleId)\n        public\n        view\n        returns (Sale memory sale)\n    {\n        sale = sales[saleId];\n    }\n\n    function buyMoment(uint256 saleId) public {\n        Sale memory saleData = getSaleById(saleId);\n\n        require(\n            ownerOf(saleData.tokenId) != _msgSender(),\n            \"Owner can not buy moment\"\n        );\n\n        require(!saleData.saleDone, \"Buy moment Failed\");\n\n        IPLT.transferFrom(_msgSender(), saleData.seller, saleData.price);\n        _transfer(saleData.seller, _msgSender(), saleData.tokenId);\n\n        saleData.saleDone = true;\n        _endSale(saleId);\n\n        emit momentSold(saleData.seller, _msgSender(), saleData.tokenId);\n    }\n\n    function checkSaleInProgressOf(uint256 tokenId)\n        internal\n        view\n        returns (bool)\n    {\n        for (uint256 i = 0; i < totalSales(); i++) {\n            if (sales[i].tokenId == tokenId && !sales[i].saleDone) {\n                return true;\n            }\n        }\n        return false;\n    }\n\n    function endSale(uint256 saleId) public {\n        Sale memory sale = sales[saleId];\n\n        require(\n            ownerOf(sale.tokenId) == _msgSender(),\n            \"Unauthorized action: Token owner can only end sale\"\n        );\n\n        _endSale(saleId);\n    }\n\n    function _endSale(uint256 saleId) internal {\n        sales[saleId].saleDone = true;\n    }\n\n    function totalSales() public view returns (uint256) {\n        return sales.length;\n    }\n}\n",
  "sourcePath": "/home/calibraint/Documents/ipl-token/contract/contracts/MomentSales.sol",
  "compiler": {
    "name": "solc",
    "version": "0.8.2+commit.661d1103.Emscripten.clang"
  },
  "schemaVersion": "3.4.3",
  "updatedAt": "2021-09-21T07:09:50.635Z",
  "networkType": "ethereum",
  "devdoc": {
    "kind": "dev",
    "methods": {
      "approve(address,uint256)": {
        "details": "Gives permission to `to` to transfer `tokenId` token to another account. The approval is cleared when the token is transferred. Only a single account can be approved at a time, so approving the zero address clears previous approvals. Requirements: - The caller must own the token or be an approved operator. - `tokenId` must exist. Emits an {Approval} event."
      },
      "balanceOf(address)": {
        "details": "Returns the number of tokens in ``owner``'s account."
      },
      "getApproved(uint256)": {
        "details": "Returns the account approved for `tokenId` token. Requirements: - `tokenId` must exist."
      },
      "isApprovedForAll(address,address)": {
        "details": "Returns if the `operator` is allowed to manage all of the assets of `owner`. See {setApprovalForAll}"
      },
      "owner()": {
        "details": "Returns the address of the current owner."
      },
      "ownerOf(uint256)": {
        "details": "Returns the owner of the `tokenId` token. Requirements: - `tokenId` must exist."
      },
      "renounceOwnership()": {
        "details": "Leaves the contract without owner. It will not be possible to call `onlyOwner` functions anymore. Can only be called by the current owner. NOTE: Renouncing ownership will leave the contract without an owner, thereby removing any functionality that is only available to the owner."
      },
      "safeTransferFrom(address,address,uint256,bytes)": {
        "details": "Safely transfers `tokenId` token from `from` to `to`. Requirements: - `from` cannot be the zero address. - `to` cannot be the zero address. - `tokenId` token must exist and be owned by `from`. - If the caller is not `from`, it must be approved to move this token by either {approve} or {setApprovalForAll}. - If `to` refers to a smart contract, it must implement {IERC721Receiver-onERC721Received}, which is called upon a safe transfer. Emits a {Transfer} event."
      },
      "supportsInterface(bytes4)": {
        "details": "Returns true if this contract implements the interface defined by `interfaceId`. See the corresponding https://eips.ethereum.org/EIPS/eip-165#how-interfaces-are-identified[EIP section] to learn more about how these ids are created. This function call must use less than 30 000 gas."
      },
      "transferOwnership(address)": {
        "details": "Transfers ownership of the contract to a new account (`newOwner`). Can only be called by the current owner."
      }
    },
    "version": 1
  },
  "userdoc": {
    "kind": "user",
    "methods": {},
    "version": 1
  }
}